:10000000A6C00000C0C00000BEC00000BCC0000010
:10001000BAC00000B8C00000B6C00000B4C0000004
:10002000B2C00000B0C000003DC6000002C6000023
:10003000AAC00000A8C00000A6C00000A4C0000024
:10004000A2C00000A0C000009EC000009CC0000034
:100050009AC0000098C0000096C0000094C0000044
:1000600092C0000090C000008EC000008CC0000054
:100070008AC0000088C0000086C0000084C0000064
:1000800082C0000080C000007EC000007CC0000074
:100090007AC0000078C0000076C0000074C0000084
:1000A00072C0000070C000006EC00000120110019C
:1000B00000000008EB03452001000102DC010902F9
:1000C00020000101008032090400000208065000EF
:1000D00007058302400001070504024000010403F4
:1000E000090418034A0075007300740069006E006B
:1000F00020004A0061006D0065007300200043008D
:100100006C0061007900640065006E0000002E0341
:1001100042006C00750065006300680069006C00B7
:100120006C00690020005500530042002000480088
:1001300065006100720074002000440061007400DA
:10014000610020004400690073006B00000011246E
:100150001FBECFEFDAE0DEBFCDBF11E0A0E0B1E01F
:10016000E4EDFBE102C005900D92AE36B107D9F780
:1001700011E0AEE6B1E001C01D92AB37B107E1F787
:1001800043D00C94E80D3CCF76980895769A089564
:10019000769847D37698089580E091E00C94010C0E
:1001A00080E091E00E94C30B80FD02C090E401C09A
:1001B00090E08EB18F7B982B9EB9089584B7877F8E
:1001C00084BF88E10FB6F8948093600010926000BD
:1001D0000FBE80E090E020E80FB6F8942093610015
:1001E000809361000FBE6E9A7698209A289A84B107
:1001F000866084B923982B9A8DB581608DBD209837
:100200008CE58CBDFED4F3C04F925F926F927F92CB
:100210008F929F92AF92BF92CF92DF92EF92FF9216
:100220000F931F93CF93DF9380E880936100109228
:100230006100569A5E98C0E0D0E080E9482E81E0E7
:10024000582E5E9ABE01882777FD8095982F0E94D0
:10025000D10C3B014C012DEC3CEC4CEC5DE30E94DD
:10026000850D20E030E040E85FE30E943B0C5B013D
:100270006C0120E030E04AE755E40E94850D7B01E7
:100280008C0120E030E040E85FE30E949F0C88236F
:100290001CF461E070E022C0C801B70120E03FEF2C
:1002A0004FE757E40E94810D1816A4F4C601B5016A
:1002B00020E030E040E251E40E94850D0E94A30C52
:1002C00005C0C2010197F1F76150704061157105D9
:1002D000C1F707C0C801B7010E94A30CCB01019769
:1002E000F1F75E98C401B3012DEC3CEC4CEC5DEBF6
:1002F0000E94850D20E030E048EA51E40E943B0C6A
:100300005B016C0120E030E04AE755E40E94850D76
:100310007B018C0120E030E040E85FE30E949F0C0D
:1003200088231CF461E070E022C0C801B70120E01E
:100330003FEF4FE757E40E94810D1816A4F4C60161
:10034000B50120E030E040E251E40E94850D0E94BA
:10035000A30C05C0C2010197F1F76150704061150F
:100360007105C1F707C0C801B7010E94A30CCB01FA
:100370000197F1F72196C436D10509F062CF1EDF4F
:10038000769A789480E091E00E94A00A0E948D0AFB
:10039000F9CFDA01923049F0933061F09130F9F4FD
:1003A000ECEAF0E022E130E01EC0EEEBF0E020E20B
:1003B00030E019C0813049F0813018F0823079F492
:1003C00008C0EEEDF0E0849107C0E2EEF0E0849129
:1003D00003C0EEE0F1E08491282F30E004C0E0E0BB
:1003E000F0E020E030E0ED93FC93C90108952C98F3
:1003F00087ED8EBD0DB407FEFDCF1EBC0DB407FE0C
:10040000FDCF0EB401FE14C08DE38EBD0DB407FE0A
:10041000FDCF8AE28EBD0DB407FEFDCF8FE78EBD06
:100420000DB407FEFDCF8FEC8EBD0DB407FEFDCFE2
:1004300008952C988FE98EBD0DB407FEFDCF1EBC2C
:100440000DB407FEFDCF8EB590E08F3109F491E039
:10045000892F0895DF92EF92FF920F931F93CF930E
:10046000DF937C01E90182ED8EBD0DB407FEFDCF67
:100470001EBC0DB407FEFDCF1EBC0DB407FEFDCFA4
:100480001EBC0DB407FEFDCF1EBC0DB407FEFDCF94
:1004900042D3882309F0AFC010E082EDD82E9FC070
:1004A00000E08091E80085FD09C08091E8008E772A
:1004B0008093E80030D3882309F09DC01032A9F45E
:1004C000DEBC0DB407FEFDCF1EBC0DB407FEFDCF94
:1004D0001EBC0DB407FEFDCF1EBC0DB407FEFDCF44
:1004E0001EBC0DB407FEFDCF10E01EBC0DB407FE10
:1004F000FDCF8EB58093F1001EBC0DB407FEFDCF7D
:100500008EB58093F1001EBC0DB407FEFDCF8EB5F5
:100510008093F1001EBC0DB407FEFDCF8EB5809315
:10052000F1001EBC0DB407FEFDCF8EB58093F10027
:100530001EBC0DB407FEFDCF8EB58093F1001EBC2E
:100540000DB407FEFDCF8EB58093F1001EBC0DB437
:1005500007FEFDCF8EB58093F1001EBC0DB407FEE3
:10056000FDCF8EB58093F1001EBC0DB407FEFDCF0C
:100570008EB58093F1001EBC0DB407FEFDCF8EB585
:100580008093F1001EBC0DB407FEFDCF8EB58093A5
:10059000F1001EBC0DB407FEFDCF8EB58093F100B7
:1005A0001EBC0DB407FEFDCF8EB58093F1001EBCBE
:1005B0000DB407FEFDCF8EB58093F1001EBC0DB4C7
:1005C00007FEFDCF8EB58093F100F70186A9882341
:1005D00091F41F5F0F5F003209F063CF21972097DE
:1005E00009F05ECF8091E80085FD05C08091E800AC
:1005F0008E778093E800DF91CF911F910F91FF904C
:10060000EF90DF900895CF92DF92EF92FF920F93D9
:100610001F93CF93DF936C01E90184E88EBD0DB485
:1006200007FEFDCF78D2882309F0AAC010E000E0D1
:10063000EE24E39490C0FF248091E80085FD09C07A
:100640008091E8008B778093E80065D2882309F0D9
:1006500097C01032A9F4002311F483E801C086E8A2
:100660008EBD0DB407FEFDCF2C9B0E25002311F48B
:1006700084E801C087E88EBD0DB407FEFDCF10E011
:100680008091F1008EBD0DB407FEFDCF8091F10089
:100690008EBD0DB407FEFDCF8091F1008EBD0DB46F
:1006A00007FEFDCF8091F1008EBD0DB407FEFDCF9A
:1006B0008091F1008EBD0DB407FEFDCF8091F10059
:1006C0008EBD0DB407FEFDCF8091F1008EBD0DB43F
:1006D00007FEFDCF8091F1008EBD0DB407FEFDCF6A
:1006E0008091F1008EBD0DB407FEFDCF8091F10029
:1006F0008EBD0DB407FEFDCF8091F1008EBD0DB40F
:1007000007FEFDCF8091F1008EBD0DB407FEFDCF39
:100710008091F1008EBD0DB407FEFDCF8091F100F8
:100720008EBD0DB407FEFDCF8091F1008EBD0DB4DE
:1007300007FEFDCF8091F1008EBD0DB407FEFDCF09
:10074000F60186A98823E1F41F5FF394F0E2FF1617
:1007500009F072CF2197209709F06DCF002311F493
:1007600083E801C086E88EBD0DB407FEFDCF809101
:10077000E80085FD05C08091E8008B778093E80054
:10078000DF91CF911F910F91FF90EF90DF90CF906D
:1007900008950F931F93CF93DF938C01862FF80159
:1007A000468D558D648D738DC1A1D0A14030F2E08E
:1007B0005F07F0E06F07F0E07F0768F08091390194
:1007C000807F85608093390181E28093430110929C
:1007D000440180E021C0882321F0C8019E013ADE57
:1007E00003C0C8019E010FDF9E0140E050E089E098
:1007F000220F331F441F551F8A95D1F7F8018289B4
:100800009389A489B589821B930BA40BB50B828BAA
:10081000938BA48BB58B81E0DF91CF911F910F91CA
:100820000895CF92DF92EF92FF920F931F93DF9381
:10083000CF93CDB7DEB728970FB6F894DEBF0FBEC3
:10084000CDBF7C01FC01818D8D3109F4A6C08E31B4
:1008500078F4833009F452C0843020F4882309F4FA
:10086000D9C0DEC08231B9F08A3109F0D9C0B8C030
:10087000883209F4AFC0893238F48E3109F4CAC025
:10088000853209F0CDC05DC08A3209F4A0C08F3234
:1008900009F0C6C0BFC0F701058D148D828D90E0B0
:1008A00083709070892B09F07CC0838D882309F0B8
:1008B00078C068010532110518F094E2C92ED12CD8
:1008C00089E491E0B60140E050E025D4C8018C19DC
:1008D0009D0960E070E070D48091E8008E7780938D
:1008E000E800960140E050E0F70182899389A489ED
:1008F000B589821B930BA40BB50B87C0F701158D2F
:10090000012F133108F002E187E391E0602F70E0DE
:1009100040E050E000D4812F90E0801B910960E01E
:1009200070E04AD48091E8008E778093E800F70168
:1009300082899389A489B589801B9109A109B1098C
:1009400064C08FEF91E0A0E0B0E089839A83AB832D
:10095000BC8380E092E0A0E0B0E08D839E83AF8313
:10096000B887CE01019664E070E040E050E082D3A9
:10097000CE01059664E070E040E050E07BD38091CA
:10098000E8008E778093E800F70182899389A48933
:10099000B5890897A109B10938C0F701828D82FD98
:1009A00008C080913901807F85608093390184E29D
:1009B0003EC03FDD882371F580913901807F8460DE
:1009C00080933901109243011092440133C0C70152
:1009D00060E002C0C70161E0DCDE882359F12CC071
:1009E0001092F1001092F1001092F1001092F100BB
:1009F0008091E8008E778093E800F70182899389DF
:100A0000A489B5890497A109B109828B938BA48B22
:100A1000B58B12C0F701128A138A148A158A0CC08A
:100A200080913901807F85608093390180E28093D5
:100A30004301CACF80E00AC080913901807F809352
:100A40003901109243011092440181E028960FB6BB
:100A5000F894DEBF0FBECDBFCF91DF911F910F91F4
:100A6000FF90EF90DF90CF900895382F282F2CC063
:100A70002093E900231721F4762F942F50E006C02D
:100A80007091EC009091ED005091F00091FF1BC02F
:100A90008091EB008E7F8093EB008091ED008D7F45
:100AA0008093ED008091EB0081608093EB00709368
:100AB000EC009093ED005093F0008091EE0087FDE4
:100AC00002C080E008952F5F273090F23093E90054
:100AD00081E008958091730188239CF404C0809183
:100AE00072018823B9F08091E80082FFF8CF8091ED
:100AF000E8008B778093E800089580917201882345
:100B000049F08091E80080FFF8CF8091E8008E776F
:100B10008093E80008954091E4005091E50024E6B8
:100B20008091EC0080FF24C08091E80080FD1EC011
:100B300080917201882311F482E00895853011F4C8
:100B400083E008958091EB0085FF02C081E0089565
:100B50008091E4009091E5008417950709F3222322
:100B600011F484E008952150AC01DACF80E00895BB
:100B70008091E80082FFDCCFF9CFEF92FF920F93D4
:100B80001F934AD051D008ED10E0F80180818F7793
:100B9000808380818068808380818F7D808319BC81
:100BA0001092720110926E011092700110926F01FA
:100BB00080EEE82EF12CF70180818B7F8083F80195
:100BC00080818160808380E060E042E04EDFE1EE82
:100BD000F0E080818E7F8083E2EEF0E080818160B2
:100BE0008083808188608083F70180818E7F80830D
:100BF000F8018081806180831F910F91FF90EF90B9
:100C00000895E7EDF0E08081816080838AE482BF0F
:100C100081E080937101B1CFE8EDF0E080818E7FBB
:100C200080831092E20008951092DA001092E100A1
:100C300008951F920F920FB60F9211241F932F93B6
:100C40003F934F935F936F937F938F939F93AF9354
:100C5000BF93EF93FF93E9EEF0E0108117701082DD
:100C6000E0EFF0E08081877F80837894E7D2A9EE7F
:100C7000B0E01C92E0EFF0E08081886080831C93FC
:100C8000FF91EF91BF91AF919F918F917F916F9164
:100C90005F914F913F912F911F910F900FBE0F9039
:100CA0001F9018951F920F920FB60F9211242F9339
:100CB0003F934F935F936F937F938F939F93AF93E4
:100CC000BF93EF93FF938091E10082FF0AC0809170
:100CD000E20082FF06C08091E1008B7F8093E100FB
:100CE0001BD48091DA0080FF1DC08091D80080FF66
:100CF00019C08091DA008E7F8093DA008091D9004C
:100D000080FF0CC080E189BD82E189BD09B400FE8D
:100D1000FDCF81E08093720137DA04C019BC1092D4
:100D2000720134DA8091E10080FF18C08091E20006
:100D300080FF14C08091E2008E7F8093E20080915A
:100D4000E20080618093E2008091D800806280930D
:100D5000D80019BC85E080937201DED38091E10058
:100D600084FF2DC08091E20084FF29C080E189BD0D
:100D700082E189BD09B400FEFDCF8091D8008F7D4E
:100D80008093D8008091E1008F7E8093E100809174
:100D9000E2008F7E8093E2008091E2008160809388
:100DA000E20080916E01882331F48091E30087FD99
:100DB00002C081E001C084E080937201ADD38091D4
:100DC000E10083FF27C08091E20083FF23C0809170
:100DD000E100877F8093E10082E0809372011092AE
:100DE0006E018091E1008E7F8093E1008091E200AE
:100DF0008E7F8093E2008091E20080618093E20028
:100E000080E060E042E031DE8091F0008860809315
:100E1000F00082D3FF91EF91BF91AF919F918F919D
:100E20007F916F915F914F913F912F910F900FBEE6
:100E30000F901F9018959C014091790150917A0173
:100E40004617570718F4F90190E045C06115710580
:100E500011F0AB01F8CF8091E8008E778093E80025
:100E600040E050E0F0CF80917201882309F445C042
:100E7000853009F444C08091E80083FF02C081E01E
:100E800008958091E80082FD32C08091E80080FFE3
:100E900022C08091F3009091F200782F60E0292F1A
:100EA00030E0262B372B07C081918093F100415011
:100EB00050402F5F3F4F4115510519F02830310543
:100EC00098F390E02830310509F491E08091E80032
:100ED0008E778093E8004115510529F6992319F67C
:100EE00006C080917201882341F0853041F08091E5
:100EF000E80082FFF6CF80E0089582E0089583E065
:100F000008959C014091790150917A014617570745
:100F100018F4F90190E046C06115710511F0AB01BC
:100F2000F8CF8091E8008E778093E80040E050E0B1
:100F3000F0CF80917201882309F447C0853009F40D
:100F400046C08091E80083FF02C081E0089580914F
:100F5000E80082FD34C08091E80080FF23C08091CA
:100F6000F3009091F200782F60E0292F30E0262BDB
:100F7000372B08C084918093F10031964150504046
:100F80002F5F3F4F4115510519F02830310590F37F
:100F900090E02830310509F491E08091E8008E77E7
:100FA0008093E8004115510521F6992309F0C1CF3E
:100FB00006C080917201882341F0853041F0809114
:100FC000E80082FFF6CF80E0089582E0089583E094
:100FD0000895BF92CF92DF92EF92FF920F931F93EB
:100FE000CF93DF93182F092F7B016A0194DDB82E70
:100FF0008823A9F5812F902F9C01E901C114D10408
:1010000039F0F60180819181E81AF90AC80FD91FD9
:1010100000E010E021C08091E80085FD15C08091BE
:10102000E8008B778093E800C114D10449F0F60101
:1010300080819181800F911F9183808385E010C012
:101040006ADD882349F00CC08091F10089930894EF
:10105000E108F1080F5F1F4FE114F104E1F68B2D59
:10106000DF91CF911F910F91FF90EF90DF90CF9084
:10107000BF900895BF92CF92DF92EF92FF920F93AD
:101080001F93CF93DF938C01EB016A0144DDB82EEF
:101090008823B1F521970C0F1D1F2196C114D1048F
:1010A00039F0F60180819181C81BD90B081B190BFF
:1010B000EE24FF2423C08091E80085FD15C08091B7
:1010C000E8008E778093E800C114D10449F0F6015E
:1010D000808191818E0D9F1D9183808385E011C059
:1010E0001ADD882359F00DC0F80180818093F1004A
:1010F0000150104021970894E11CF11C2097D9F66B
:101100008B2DDF91CF911F910F91FF90EF90DF908A
:10111000CF90BF900895BF92CF92DF92EF92FF924F
:101120000F931F93CF93DF93182F092F7B016A0131
:10113000F2DCB82E8823A9F5812F902F9C01E901BC
:10114000C114D10439F0F60180819181E81AF90ABD
:10115000C80FD91F00E010E021C08091E80085FD94
:1011600015C08091E8008E778093E800C114D10407
:1011700049F0F60180819181800F911F91838083D6
:1011800085E010C0C8DC882349F00CC089918093A9
:10119000F1000894E108F1080F5F1F4FE114F1041A
:1011A000E1F68B2DDF91CF911F910F91FF90EF9082
:1011B000DF90CF90BF900895DF92EF92FF920F9350
:1011C0001F93CF93DF93EC018B01A5DCD82E8823EE
:1011D00061F50115110529F0F80180819181C81B85
:1011E000D90BEE24FF241FC08091E80085FD15C0B7
:1011F0008091E8008E778093E8000115110549F091
:10120000F801808191818E0D9F1D9183808385E0FF
:101210000DC081DC882339F009C01092F1002197BC
:101220000894E11CF11C2097F9F68D2DDF91CF91E8
:101230001F910F91FF90EF90DF9008950F931F93F0
:10124000DF93CF93CDB7DEB7AC970FB6F894DEBF80
:101250000FBECDBFE3E7F1E08091F100819321E083
:10126000EB37F207C9F70E94CC008091E80083FFBA
:101270003AC18091730130917401353009F487C00F
:10128000363040F43130C9F1313070F0333009F08C
:101290002AC133C0383009F4F7C0393009F406C127
:1012A000363009F020C197C0803821F0823809F02B
:1012B0001AC108C090916F0180917001882399F044
:1012C000926011C08091770187708093E9008091CE
:1012D000EB0090E025E0969587952A95E1F7982F09
:1012E00091701092E9008091E800877F8093E80078
:1012F0009093F1001092F100D2C0882319F082304F
:1013000009F0F1C090E08F719070009721F0029782
:1013100009F0E9C00CC080917501813009F0E3C08B
:1013200010927001333069F5809370012AC080916A
:101330007501882331F520917701277009F4D3C016
:101340002093E9008091EB0080FF1BC0333021F433
:101350008091EB00806213C08091EB0080618093EC
:10136000EB0081E090E002C0880F991F2A95E2F718
:101370008093EA001092EA008091EB0088608093ED
:10138000EB001092E9008091E800877F8BC08823F2
:1013900009F0A9C0109175011F770FB7F8948091DB
:1013A000E800877F8093E80095DB8091E80080FF6C
:1013B000FCCF8091E3008078812B8093E3008068EC
:1013C0008093E300112311F482E001C083E0809355
:1013D00072010FBF88C08058823008F084C08091AD
:1013E00075019091760123E08C3D920709F033C09E
:1013F00083E08C838AE28B837FB7F894DE011596B5
:101400006EE040E050E011E2E62FF0E0109357006C
:10141000849140FF03C082958F706F5F8F70282F7B
:1014200030E08A3018F0C901C79602C0C901C096E1
:101430008D939D934F5F5F4F4431510529F77FBFD7
:101440008091E800877F8093E800CE0103966AE2EE
:1014500070E0F1DC13C060917701AE014F5F5F4F28
:101460000E94C901BC01009709F43DC08091E800C9
:10147000877F8093E80089819A8143DD8091E8002D
:101480008B778093E8002FC0803869F58091E80061
:10149000877F8093E80080916E018093F1008091B6
:1014A000E8008E778093E80015DB1DC08823D9F40F
:1014B000909175019230B8F48091E800877F809315
:1014C000E80090936E0106DB80916E01882331F471
:1014D0008091E30087FD02C081E001C084E0809339
:1014E00072010E94D0008091E80083FF0AC08091C1
:1014F000EB0080628093EB008091E800877F80930F
:10150000E800AC960FB6F894DEBF0FBECDBFCF910A
:10151000DF911F910F91089508951F93809172019B
:10152000882361F01091E9001092E9008091E800B1
:1015300083FF01C083DE17701093E9001F910895A7
:10154000CF92DF92EF92FF920F931F93DF93CF938F
:1015500000D0CDB7DEB78C0180917201843009F0E4
:1015600007C1F80195819093E9008091E80085FF1B
:10157000C9C09093E9001A8219822AE0E22EF12C68
:10158000E00EF11E6E010894C11CD11C05C0F801CB
:1015900086A9882309F0B6C0C7016FE070E0A601F4
:1015A00018DD8530A1F3F80182859385A485B58582
:1015B00085559345A244B34481F4F8019789818508
:1015C000981758F4868990E08F719070892B29F4D0
:1015D000808D882311F0813178F08091EB0080625A
:1015E0008093EB00F80181818093E9008091EB000A
:1015F00080628093EB0086C01A82198299E1E92EFD
:10160000F12CE00EF11E6E010894C11CD11C05C026
:10161000F80186A9882309F075C0F801608DC7011B
:1016200070E0A601D6DC853099F38091E8008B77D5
:101630008093E800F801868987FF03C08181809349
:10164000E900C8010E94C80091E09827F80195AB15
:1016500025E533E542E453E521A732A743A754A784
:10166000268537854089518925A736A747A750ABDE
:10167000228933894489558921AB32AB43AB54ABC2
:10168000882351F4211531054105510529F0809138
:10169000EB0080628093EB00F80185818093E90084
:1016A00004C0F80186A9882369F58091EB0085FDC7
:1016B000F8CFF80181818093E90004C0F80186A980
:1016C000882301F58091EB0085FDF8CF1A821982FD
:1016D00089E2E82EF12CE00EF11E6E010894C11C87
:1016E000D11C04C0F80186A9882361F4C7016DE00C
:1016F00070E0A60110DD8530A9F38091E8008E77B7
:101700008093E800F80186A9882391F1458121E0C2
:1017100030E0C901042E02C0880F991F0A94E2F735
:101720008093EA001092EA009181092E02C0220FF4
:10173000331F0A94E2F72093EA001092EA004093E4
:10174000E9008091EB0080618093EB008091EB00D9
:1017500088608093EB009093E9008091EB008061BA
:101760008093EB008091EB0088608093EB0016AAD9
:101770000F900F90CF91DF911F910F91FF90EF90FD
:10178000DF90CF9008951F93CF93DF93EC010A96DB
:10179000FC018DE2DF011D928A95E9F711E0898154
:1017A000181729F46A817B818C8130E807C08D810C
:1017B0001817F9F46E817F81888530E0882311F451
:1017C00040E001C044E020E088E090E003C02F5FEB
:1017D000880F991F86179707D0F360E0311161E0F9
:1017E000606842602295207F422B812F3ED988235A
:1017F00021F01F5F173099F681E0DF91CF911F91A3
:101800000895CF93DF93EC018091E80083FF2FC010
:10181000888190E02091770130917801281739076D
:1018200031F5809174018E3F79F08F3F01F5809101
:1018300073018132E1F48091E800877F8093E800B2
:1018400049D981E08EAB13C080917301813A79F45C
:101850008091E800877F8093E8008985815080939C
:10186000F1008091E8008E778093E80033D9DF9112
:10187000CF9108955058BB27AA270ED008C1F9D0A0
:1018800030F0FED020F031F49F3F11F41EF4EEC092
:101890000EF4E095E7FBE4C0E92F0AD180F3BA1714
:1018A000620773078407950718F071F49EF522C14B
:1018B0000EF4E0950B2EBA2FA02D0B01B90190016B
:1018C0000C01CA01A0011124FF27591B99F0593FAF
:1018D00050F4503E68F11A16F040A22F232F342FF7
:1018E0004427585FF3CF469537952795A795F04045
:1018F0005395C9F77EF41F16BA0B620B730B840B5A
:10190000BAF09150A1F0FF0FBB1F661F771F881F11
:10191000C2F70EC0BA0F621F731F841F48F4879569
:1019200077956795B795F7959E3F08F0B3CF939558
:10193000880F08F09927EE0F9795879508956CD03A
:1019400008F481E00895BCD088F09F5790F0B92F3B
:101950009927B751A0F0D1F0660F771F881F991F04
:101960001AF0BA95C9F712C0B13081F0C3D0B1E016
:101970000895C0C0672F782F8827B85F39F0B93F26
:10198000CCF3869577956795B395D9F73EF4909506
:101990008095709561957F4F8F4F9F4F0895E89484
:1019A00009C097FB3EF490958095709561957F4FA7
:1019B0008F4F9F4F9923A9F0F92F96E9BB27939555
:1019C000F695879577956795B795F111F8CFFAF465
:1019D000BB0F11F460FF1BC06F5F7F4F8F4F9F4F96
:1019E00016C0882311F096E911C0772321F09EE8F4
:1019F000872F762F05C0662371F096E8862F70E05A
:101A000060E02AF09A95660F771F881FDAF7880F33
:101A10009695879597F90895990F0008550FAA0B89
:101A2000E0E8FEEF16161706E807F907C0F01216F1
:101A30001306E407F50798F0621B730B840B950BF4
:101A400039F40A2661F0232B242B252B21F4089549
:101A50000A2609F4A140A6958FEF811D811D0895E6
:101A600097F99F6780E870E060E008959FEF80EC51
:101A7000089500240A9416161706180609060895F4
:101A800000240A9412161306140605060895092E5A
:101A90000394000C11F4882352F0BB0F40F4BF2BC9
:101AA00011F460FF04C06F5F7F4F8F4F9F4F089509
:101AB00057FD9058440F551F59F05F3F71F04795FF
:101AC000880F97FB991F61F09F3F79F087950895E4
:101AD000121613061406551FF2CF4695F1DF08C003
:101AE000161617061806991FF1CF86957105610520
:101AF00008940895E894BB2766277727CB0197F9C8
:101B000008958ADF08F48FEF08950BD0C0CFB1DFBE
:101B100028F0B6DF18F0952309F0A2CFA7CF112443
:101B2000EACFC6DFA0F3959FD1F3950F50E0551F84
:101B3000629FF001729FBB27F00DB11D639FAA2722
:101B4000F00DB11DAA1F649F6627B00DA11D661F71
:101B5000829F2227B00DA11D621F739FB00DA11D92
:101B6000621F839FA00D611D221F749F3327A00D4C
:101B7000611D231F849F600D211D822F762F6A2FE8
:101B800011249F5750408AF0E1F088234AF0EE0F6D
:101B9000FF1FBB1F661F771F881F91505040A9F77A
:101BA0009E3F510570F05CCFA6CF5F3FECF3983EAF
:101BB000DCF3869577956795B795F795E7959F5FE1
:101BC000C1F7FE2B880F911D9695879597F908957B
:041BD000F894FFCFB7
:101BD4000003400000044000000100000000000079
:101BE40000000000000000000000000000000000F1
:101BF40000000000000000000000000000000000E1
:101C040000000000000000700000000000000A0056
:101C1400000000000000000000008000021F00001F
:101C2400004C5546410000000044617461666C61DB
:0E1C34007368204469736B0000302E3030005E
:00000001FF
