:100000003AC1000054C1000052C1000050C10000BC
:100010004EC100004CC100004AC1000048C10000B0
:1000200046C1000044C100000C94B71D0C947E1D15
:100030003EC100003CC100003AC1000038C10000D0
:1000400036C100005CC2000032C1000030C10000B7
:100050002EC100002CC100002AC1000028C10000F0
:1000600026C1000024C1000022C1000020C1000000
:100070001EC100001CC100001AC1000018C1000010
:1000800016C1000014C1000012C1000010C1000020
:100090000EC100000CC100000AC1000008C1000030
:1000A00006C1000004C1000002C100000600FF09F3
:1000B00001A1010902150025FF75089507810209B4
:1000C00003150025FF750895079102C01201100164
:1000D00000000008EB03452001000102DC010902D9
:1000E0003900020100C03209040000020806500075
:1000F00007058302400001070504024000010904CE
:10010000010001030000000921110100012220006B
:1001100007058103100001040309042A034A00753E
:10012000007300740069006E0020004A0061006DD9
:100130000065007300200043006C006100790064DA
:100140000065006E0000003C0342006C0075006515
:10015000006300680069006C006C006900200048C2
:1001600000650061007200740020004D006F006E99
:1001700000690074006F0072002000440069007381
:10018000006B000000B403B003AB03A603A0039A06
:100190000394038E03880381037A0373036B036361
:1001A000035B0353034A03410338032F0325031B57
:1001B0000311030703FC02F102E602DB02D002C4D2
:1001C00002B802AC02A002940288027C026F0263B1
:1001D0000256024A023D023102250218020C0200B8
:1001E00002F301E701DB01CF01C401B801AC01A1B9
:1001F0000196018B01800176016B01610157014D70
:100200000144013A01310128011F0117010F0106C4
:1002100001FE00F700EF00E800E100DA00D300CDB6
:1002200000C700C000BA00B500AF00AA00A4009F3C
:10023000009A00960091008C008800840080007C69
:10024000007800740071006D006A0067006400614E
:10025000005E005B0058005500530050004E004CFB
:1002600000490047004500430041003F003D003C7D
:10027000003A0038000011241FBECFEFDAE0DEBFE5
:10028000CDBF11E0A0E0B1E0EAE5F5E502C00590E0
:100290000D92AA3CB107D9F716E0AAECB1E001C073
:1002A0001D92A433B107E1F70ED10C94AB2AA8CE6E
:1002B0000F931F938901C90195D6F801668180913A
:1002C000CA01861731F06093CA0180E090E00E9475
:1002D000C2291F910F910895EF92FF920F931F93E0
:1002E00078018901C901D6D58091CA01F8018683B8
:1002F00087E090E0F7019183808381E01F910F9167
:10030000FF90EF90089576989BD47698089580E4B6
:1003100091E00E94CE2587E791E00C9431230F9362
:100320001F9387E791E00E94F922082F80E491E073
:100330000E948F2510E090E00823192300FF02C0DF
:1003400090E001C090E48EB18F7B982B9EB91F91F5
:100350000F91089584B7877F84BF88E10FB6F89422
:1003600080936000109260000FBE80E090E020E873
:100370000FB6F89420936100809361000FBE6E9ACF
:100380007698209A289A84B1866084B923982B9A0B
:100390008DB581608DBD20988CE58CBD87EA8093FA
:1003A0007A008098EEE7F0E08081816080830E948F
:1003B000661DECEBF0E080818460808381E08093B7
:1003C000B90080E28093B80083E89EE190938900B1
:1003D000809388008DE08093810082E080936F009D
:1003E00014C20F931F930DEF15E0C8010E94EE1386
:1003F000C8010E94E5141F910F9108957698F1CFDE
:10040000EF92FF920F931F93DF93CF93CDB7DEB799
:1004100062970FB6F894DEBF0FBECDBFCE01019636
:1004200039D58DB79EB70A970FB6F8949EBF0FBE09
:100430008DBFEDB7FEB7319687E0E82EF12CEC0EBC
:10044000FD1EADB7BEB71296FC92EE92119780E0FA
:1004500091E0938382838C81848315828D8186834E
:1004600017828E81808711860E94CB278DB79EB719
:100470000A960FB6F8949EBF0FBE8DBF80E06DEC5C
:1004800071E022D70DEF15E0C801B70142E10E94EB
:10049000F01440910706509108066091090670918A
:1004A0000A06C8010E944B0D62960FB6F894DEBF93
:1004B0000FBECDBFCF91DF911F910F91FF90EF90B5
:1004C0000895769A9DCF46DF80E090E00E94BA2999
:1004D0008093CA018F3F19F48AE08093CA0190DFAC
:1004E000769A78945E9A80E491E00E946D2487E782
:1004F00091E00E943F225E980E942D22F3CF1F922E
:100500000F920FB60F9211248F929F92AF92BF92CB
:10051000CF92DF92EF92FF920F932F933F934F93DF
:100520005F936F937F938F939F93AF93BF93EF935B
:10053000FF93DF93CF93CDB7DEB7CC56D040DEBF6D
:10054000CDBF0EB12091CB013091CC012F5F3F4F39
:100550003093CC012093CB018091CA0190E0281701
:10056000390708F45FC01092CC011092CB01769845
:100570008EB3882309F051C0CE0103968BD4FE8040
:10058000EF80D884CB80BC80AD800E9409262DB737
:100590003EB7225130400FB6F8943EBF0FBE2DBF7C
:1005A000EDB7FEB7319699E0892E912C8C0E9D1EE9
:1005B000ADB7BEB712969C928E92119721E131E0B1
:1005C00033832283F4821582E6821782D0861186D5
:1005D000C2861386B4861586A6861786992787FD58
:1005E0009095918B808B0E94CB27AC0189835A8395
:1005F0002DB73EB72E5E3F4F0FB6F8943EBF0FBEED
:100600002DBF8DEF95E0B4019E012F5F3F4F0E94FB
:1006100000108DEF95E00E94EE138EB100748F7B79
:10062000082B0EB9C459DF4FDEBFCDBFCF91DF918C
:10063000FF91EF91BF91AF919F918F917F916F91BA
:100640005F914F913F912F910F91FF90EF90DF902D
:10065000CF90BF90AF909F908F900F900FBE0F9054
:100660001F901895DA019330B1F0943028F491304E
:1006700041F0923079F50AC0913211F1923251F580
:1006800024C0ECECF0E022E130E028C0EEEDF0E038
:1006900029E330E023C0813049F0813018F0823006
:1006A000C9F40AC0E7E1F1E0849103C0EBE1F1E0B5
:1006B0008491282F30E012C0E7E4F1E08491F9CF73
:1006C000E7E0F1E029E030E009C0ECEAF0E020E208
:1006D00030E004C0E0E0F0E020E030E0ED93FC9397
:1006E000C90108950F931F9384E88EBD0DB407FED2
:1006F000FDCFA0E0B0E001E02DC0B90110E0A032D4
:10070000A9F4BB2311F483E801C086E88EBD0DB4C3
:1007100007FEFDCF2C9BB027BB2311F484E801C05A
:1007200087E88EBD0DB407FEFDCFA0E0FB0190E091
:1007300081918EBD0DB407FEFDCF9F5F9031C1F753
:10074000605F7F4FAF5F1F5F1032C9F620503E4F92
:10075000415050404115510581F6BB2311F483E807
:1007600001C086E88EBD0DB407FEFDCF1F910F912D
:1007700008951F9382ED8EBD0DB407FEFDCF1EBC04
:100780000DB407FEFDCF1EBC0DB407FEFDCF1EBC91
:100790000DB407FEFDCF1EBC0DB407FEFDCFA0E0DB
:1007A00012ED2EC0B901B0E0A032A9F41EBD0DB407
:1007B00007FEFDCF1EBC0DB407FEFDCF1EBC0DB461
:1007C00007FEFDCF1EBC0DB407FEFDCF1EBC0DB451
:1007D00007FEFDCFA0E0FB0190E01EBC0DB407FEBC
:1007E000FDCF8EB581939F5F9031B9F7605F7F4FEA
:1007F000AF5FBF5FB032C1F620503E4F4150504016
:100800004115510579F61F9108952C9887ED8EBDFD
:100810000DB407FEFDCF1EBC0DB407FEFDCF0EB418
:1008200001FE14C08DE38EBD0DB407FEFDCF8AE23C
:100830008EBD0DB407FEFDCF8FE78EBD0DB407FE54
:10084000FDCF8FEC8EBD0DB407FEFDCF08952C9823
:100850008FE98EBD0DB407FEFDCF1EBC0DB407FEA3
:10086000FDCF8EB590E08F3109F491E0892F089586
:10087000DF92EF92FF920F931F93CF93DF937C0150
:10088000E90182ED8EBD0DB407FEFDCF1EBC0DB497
:1008900007FEFDCF1EBC0DB407FEFDCF1EBC0DB480
:1008A00007FEFDCF1EBC0DB407FEFDCF0E94F21C5B
:1008B000882309F0B0C010E082EDD82EA0C000E07F
:1008C0008091E80085FD0AC08091E8008E778093D2
:1008D000E8000E94F21C882309F09DC01032A9F4A0
:1008E000DEBC0DB407FEFDCF1EBC0DB407FEFDCF70
:1008F0001EBC0DB407FEFDCF1EBC0DB407FEFDCF20
:100900001EBC0DB407FEFDCF10E01EBC0DB407FEEB
:10091000FDCF8EB58093F1001EBC0DB407FEFDCF58
:100920008EB58093F1001EBC0DB407FEFDCF8EB5D1
:100930008093F1001EBC0DB407FEFDCF8EB58093F1
:10094000F1001EBC0DB407FEFDCF8EB58093F10003
:100950001EBC0DB407FEFDCF8EB58093F1001EBC0A
:100960000DB407FEFDCF8EB58093F1001EBC0DB413
:1009700007FEFDCF8EB58093F1001EBC0DB407FEBF
:10098000FDCF8EB58093F1001EBC0DB407FEFDCFE8
:100990008EB58093F1001EBC0DB407FEFDCF8EB561
:1009A0008093F1001EBC0DB407FEFDCF8EB5809381
:1009B000F1001EBC0DB407FEFDCF8EB58093F10093
:1009C0001EBC0DB407FEFDCF8EB58093F1001EBC9A
:1009D0000DB407FEFDCF8EB58093F1001EBC0DB4A3
:1009E00007FEFDCF8EB58093F100F70186A988231D
:1009F00091F41F5F0F5F003209F062CF21972097BB
:100A000009F05DCF8091E80085FD05C08091E80088
:100A10008E778093E800DF91CF911F910F91FF9027
:100A2000EF90DF900895CF92DF92EF92FF920F93B5
:100A30001F93CF93DF936C01E90184E88EBD0DB461
:100A400007FEFDCF0E94F21C882309F0ABC010E026
:100A500000E0EE24E39491C0FF248091E80085FD3E
:100A60000AC08091E8008B778093E8000E94F21C16
:100A7000882309F097C01032A9F4002311F483E809
:100A800001C086E88EBD0DB407FEFDCF2C9B0E2560
:100A9000002311F484E801C087E88EBD0DB407FE81
:100AA000FDCF10E08091F1008EBD0DB407FEFDCFAB
:100AB0008091F1008EBD0DB407FEFDCF8091F10055
:100AC0008EBD0DB407FEFDCF8091F1008EBD0DB43B
:100AD00007FEFDCF8091F1008EBD0DB407FEFDCF66
:100AE0008091F1008EBD0DB407FEFDCF8091F10025
:100AF0008EBD0DB407FEFDCF8091F1008EBD0DB40B
:100B000007FEFDCF8091F1008EBD0DB407FEFDCF35
:100B10008091F1008EBD0DB407FEFDCF8091F100F4
:100B20008EBD0DB407FEFDCF8091F1008EBD0DB4DA
:100B300007FEFDCF8091F1008EBD0DB407FEFDCF05
:100B40008091F1008EBD0DB407FEFDCF8091F100C4
:100B50008EBD0DB407FEFDCF8091F1008EBD0DB4AA
:100B600007FEFDCFF60186A98823E1F41F5FF39409
:100B7000F0E2FF1609F071CF2197209709F06CCFB2
:100B8000002311F483E801C086E88EBD0DB407FE92
:100B9000FDCF8091E80085FD05C08091E8008B774E
:100BA0008093E800DF91CF911F910F91FF90EF901C
:100BB000DF90CF9008950F931F93CF93DF938C0115
:100BC000862FF801468D558D648D738DC1A1D0A1FE
:100BD000423051056105710568F080918601807F82
:100BE00085608093860181E280939001109291014B
:100BF00080E021C0882321F0C8019E0139DE03C0B6
:100C0000C8019E0110DF9E0140E050E089E0220F04
:100C1000331F441F551F8A95D1F7F80182899389A4
:100C2000A489B589821B930BA40BB50B828B938B84
:100C3000A48BB58B81E0DF91CF911F910F91089527
:100C4000CF92DF92EF92FF920F931F93DF93CF9398
:100C5000CDB7DEB728970FB6F894DEBF0FBECDBF75
:100C60007C01FC01818D8D3109F4ACC08E3178F4AA
:100C7000833009F454C0843020F4882309F4DFC0A1
:100C8000E4C08231B9F08A3109F0DFC0BEC08832D9
:100C900009F4B5C0893238F48E3109F4D0C08532F8
:100CA00009F0D3C061C08A3209F4A6C08F3209F0BE
:100CB000CCC0C5C0F701058D148D828D90E0837086
:100CC0009070892B09F082C0838D882309F07EC043
:100CD00068010532110518F094E2C92ED12C86E97D
:100CE00091E0B60140E050E00E942D20C8018C192F
:100CF0009D0960E070E00E947E208091E8008E7780
:100D00008093E800960140E050E0F70182899389E2
:100D1000A489B589821B930BA40BB50B8BC0F7017B
:100D2000158D012F133108F002E184E891E0602F66
:100D300070E040E050E00E942D20812F90E0801B69
:100D4000910960E070E00E947E208091E8008E773B
:100D50008093E800F70182899389A489B589801B73
:100D60009109A109B10966C081E090E0A0E0B0E07E
:100D700089839A83AB83BC8380E092E0A0E0B0E0FB
:100D80008D839E83AF83B887CE01019664E070E0C7
:100D900040E050E00E94DC1FCE01059664E070E068
:100DA00040E050E00E94DC1F8091E8008E77809345
:100DB000E800F70182899389A489B5890897A10978
:100DC000B10938C0F701828D82FD08C0809186018B
:100DD000807F85608093860184E23EC038DD882371
:100DE00071F580918601807F8460809386011092E6
:100DF00090011092910133C0C70160E002C0C701A9
:100E000061E0D9DE882359F12CC01092F1001092D4
:100E1000F1001092F1001092F1008091E8008E77BD
:100E20008093E800F70182899389A489B5890497A2
:100E3000A109B109828B938BA48BB58B12C0F701EA
:100E4000128A138A148A158A0CC080918601807FC9
:100E500085608093860180E280939001CACF80E014
:100E60000AC080918601807F809386011092900154
:100E70001092910181E028960FB6F894DEBF0FBE64
:100E8000CDBFCF91DF911F910F91FF90EF90DF9039
:100E9000CF900895CF92DF92EF920F931F93DF933D
:100EA000CF93CDB7DEB728970FB6F894DEBF0FBE4D
:100EB000CDBF6C01198280ED6AE0AE014F5F5F4FDC
:100EC00021E08E010E5F1F4FA7E0EA2E0E94D5267B
:100ED000882311F080E078C04A81242F22952F705A
:100EE000822F877090E09C01F3E0220F331FFA9568
:100EF000E1F7880F991F280F391F4F70420FF60135
:100F000042834B81242F22952F70822F877090E08F
:100F10009C0173E0220F331F7A95E1F7880F991F28
:100F2000280F391F4F70420F41834C81242F229587
:100F30002F70822F837090E09C0153E0220F331FAB
:100F40005A95E1F7880F991F280F391F4F70420FEC
:100F500040834E81242F22952F70822F837090E042
:100F60009C0113E0220F331F1A95E1F7880F991F98
:100F7000280F391F4F70420F43834F81242F229532
:100F80002F70822F817090E09C01A3E0220F331F0D
:100F9000AA95E1F7880F991F280F391F4F70420F4C
:100FA00044834885842F82958F7090E09C0163E094
:100FB000220F331F6A95E1F7880F991F280F391FF9
:100FC0004F70420F458381E028960FB6F894DEBF3C
:100FD0000FBECDBFCF91DF911F910F91EF90DF90AA
:100FE000CF900895EF920F931F93DF93CF93CDB7D8
:100FF000DEB728970FB6F894DEBF0FBECDBFFC0159
:1010000019823281832F6AE00E946C27282F277073
:101010002295207F832F0E946C279F70292B2A8383
:101020004181842F0E946C27382F37703295307F92
:101030002B812078842F0E946C279F70232B292BD3
:101040002B834081842F0E946C27382F3370329578
:10105000307F2C81207C842F0E946C279F70232B53
:10106000292B2F7B2C838D81887F8D834381842F37
:101070000E946C27382F33703295307F2E81207C70
:10108000842F0E946C279F70232B292B2E83448151
:10109000842F0E946C27382F31703295307F2F813A
:1010A000207E842F0E946C279F70232B292B2F8357
:1010B0002581822F0E946C27382F3295307F822F16
:1010C0000E946C279F70932B988780EDAE014F5F35
:1010D0005F4F21E08E010E5F1F4FB7E0EB2E0E94A5
:1010E000182790E0882309F491E0892F28960FB6FD
:1010F000F894DEBF0FBECDBFCF91DF911F910F914E
:10110000EF90089580E0089580E00895662311F03F
:1011100084E0089580E00895DF93CF9300D000D05D
:1011200000D0CDB7DEB7CE010196B4DE2C8130E021
:1011300040E050E0A901332722278D8190E0A0E014
:10114000B0E0F5E1880F991FAA1FBB1FFA95D1F7F0
:10115000282B392B4A2B5B2B898190E0A0E0B0E053
:10116000EBE0880F991FAA1FBB1FEA95D1F7282B28
:10117000392B4A2B5B2B8A8190E0A0E0B0E075E030
:10118000880F991FAA1FBB1F7A95D1F7282B392BDF
:101190004A2B5B2B8B81869590E0A0E0B0E0282B5A
:1011A000392B4A2B5B2B8E8190E04496AA2797FD22
:1011B000A095BA2F69E1880F991FAA1FBB1F6A95D6
:1011C000D1F7282B392B4A2B5B2BB901CA01269664
:1011D0000FB6F894DEBF0FBECDBFCF91DF9108955B
:1011E0000F93FB01CA01B901402F50E09F017ADA49
:1011F00080E00F9108950F93FB01CA01B901402FC0
:1012000050E09F01B6DA80E00F910895CF93DF930D
:10121000EC0120E030E00CC0FE01E20FF31FDB0127
:10122000A20FB31F8C9180832F5F3F4F41505040DE
:101230004115510589F7DF91CF910895FC0103C055
:1012400061934150504041155105D1F70895EF92F7
:10125000FF920F931F93CF93DF93EC017A018B01E1
:101260008EEF9FEFAFEFBFEFE80EF91E0A1F1B1FB7
:10127000888D998DAA8DBB8D0297A109B109E816B9
:10128000F9060A071B0728F020E030E040E050E0B4
:1012900012C02A8130E040E050E0C801B7010E944E
:1012A0004D279B01AC0188A599A5AAA5BBA5280F30
:1012B000391F4A1F5B1FB901CA01DF91CF911F91EE
:1012C0000F91FF90EF900895DB01882311F08BE0E0
:1012D0000895E0912406F0912506309709F01082D8
:1012E000109709F01C92B0932506A093240680E085
:1012F0000895FC01009781F08081882369F0868140
:1013000097818617970741F48181FEDE80FD02C038
:1013100080E0089583E0089589E008956F927F92B8
:101320008F929F92AF92BF92CF92DF92EF92FF92F5
:101330000F931F93CF93DF93EC014A015B01CCA481
:10134000DDA4EEA4FFA4C416D506E606F70609F44C
:101350004BC08C81882391F180E3682E712C6C0E38
:101360007D1E8981B301A701960101E039DF882341
:10137000C9F51C828C8D9D8DAE8DBF8D28A139A1A4
:101380004AA15BA1820F931FA41FB51FC816D906DF
:10139000EA06FB0698F41B810FC08C8D9D8DAE8DE7
:1013A000BF8DC80ED91EEA1EFB1E8981B301A7019D
:1013B000960101E015DF1150123078F78114910485
:1013C000A104B10489F0BE01605D7F4F8981A50150
:1013D000940101E010DF882329F48CA69DA6AEA617
:1013E000BFA603C081E001C080E0DF91CF911F91D3
:1013F0000F91FF90EF90DF90CF90BF90AF909F90B4
:101400008F907F906F9008956F927F928F929F92AE
:10141000AF92BF92CF92DF92EF92FF920F931F9302
:10142000CF93DF935C016A017B01380149014230AF
:1014300051056105710508F413C1E501888D998D89
:10144000AA8DBB8D481759076A077B0708F008C1AA
:101450008881823009F47BC0833009F4A9C08130CF
:1014600011F012E0F9C0EA01D695C795C40FD51F57
:10147000F50162857385CE010E947827AB0160E09B
:1014800070E080A191A1A2A1B3A1480F591F6A1FCA
:101490007B1FC50143DF182F882309F0DDC0F5014C
:1014A00062857385CE010E947827DC0191E0E92EE8
:1014B000F12CEC20FD20E114F10449F0EA0FFB1FB0
:1014C00080A98F70962D9295907F982B01C0962DB4
:1014D000AA0DBB1DD0969C93219681E0F5018483D3
:1014E00062857385CE010E947827AB0160E070E0D1
:1014F00080A191A1A2A1B3A1480F591F6A1F7B1F10
:10150000C5010CDF182F882309F0A6C0F5016285FC
:101510007385CE010E947827EC01EF2849F084E022
:1015200096948794779467948A95D1F7462D0BC04B
:10153000F501E80FF91F40A9407FBB27A92D982D81
:10154000872D8F70482BCA0DDB1D48AB85C0E50188
:101550002A853B853695279540E050E0C701B601C6
:101560000E948C27DA01C90148A159A16AA17BA177
:10157000480F591F6A1F7B1FC501D0DE182F882313
:1015800009F06AC0CC0CDD1CEE1CFF1C2A853B85D3
:1015900040E050E0C701B6010E948C27DC01CB017E
:1015A000F501E80FF91F60AA272D332721AB54C09E
:1015B000E5012A853B85369527953695279540E0A8
:1015C00050E0C701B6010E948C27DA01C90148A189
:1015D00059A16AA17BA1480F591F6A1F7B1FC50132
:1015E0009DDE182F8823C1F562E0CC0CDD1CEE1CBB
:1015F000FF1C6A95D1F72A853B8540E050E0C70182
:10160000B6010E948C279B01AC01205D3F4FF50184
:10161000E20FF31F20533040838190E0A0E0B0E060
:10162000B82FAA27992788272A0D3B1D8070907014
:10163000A070B07F86299729A829B929E90188AB2C
:10164000292F332721839D014427552722838B2F60
:101650009927AA27BB27838381E0F501848301C0F2
:1016600012E0812FDF91CF911F910F91FF90EF90AA
:10167000DF90CF90BF90AF909F908F907F906F90B2
:101680000895BF92CF92DF92EF92FF920F931F9334
:10169000CF93DF93EC017A018B0142305105610554
:1016A000710508F406C1888D998DAA8DBB8D4817E8
:1016B00059076A077B0708F0FCC08881823009F46B
:1016C00062C0833009F493C0813009F0F8C06A0128
:1016D000D694C794C40ED51E6A857B85C6010E9428
:1016E0007827AB0160E070E088A199A1AAA1BBA115
:1016F000480F591F6A1F7B1FCE0110DE882309F097
:10170000DEC02A853B85C601B9010E947827FE010B
:10171000E80FF91FB0A80894C11CD11CC601B9017B
:101720000E947827AB0160E070E088A199A1AAA18E
:10173000BBA1480F591F6A1F7B1FCE01EFDD882315
:1017400009F0BDC02B2D30E06A857B85C6010E9463
:101750007827C80FD91F98A980E0282B392BC701FB
:1017600081709070892B39F0A4E036952795AA9561
:10177000E1F7790139C0790100E010E08FEF9FE0D7
:10178000A0E0B0E091C02A853B853695279540E0E2
:1017900050E0C801B7010E948C27DA01C90148A1B5
:1017A00059A16AA17BA1480F591F6A1F7B1FCE0157
:1017B000B5DD882309F083C0EE0CFF1C001F111F4C
:1017C0002A853B8540E050E0C801B7010E948C2784
:1017D000DC01CB01FE01E80FF91F40A950E031A95F
:1017E00020E0422B532B7A0100E010E06CC02A85E8
:1017F0003B85369527953695279540E050E0C80102
:10180000B7010E948C27DA01C90148A159A16AA138
:101810007BA1480F591F6A1F7B1FCE017FDD8823E4
:1018200009F04DC062E0EE0CFF1C001F111F6A950D
:10183000D1F72A853B8540E050E0C801B7010E94FE
:101840008C279B01AC01205D3F4FFE01E20FF31F8F
:1018500020533040828190E0A0E0B0E08C01FF2472
:10186000EE24838190E0A0E0B0E0B82FAA2799276A
:101870008827E82AF92A0A2B1B2B918180E0A0E017
:10188000B0E0E82AF92A0A2B1B2B2C0F3D1FF90187
:1018900080A990E0A0E0B0E0E82AF92A0A2B1B2BEF
:1018A0008FEF9FEFAFEFBFE0E822F9220A231B235F
:1018B0000AC031E0E32EF12C012D112D04C0EE24DD
:1018C000EA94FE2C8701B701C801DF91CF911F91E7
:1018D0000F91FF90EF90DF90CF90BF9008954F92BF
:1018E0005F926F927F928F929F92AF92BF92CF92B0
:1018F000DF92EF92FF920F931F93CF93DF93EC0150
:101900002A013B01411551056105710599F48C844B
:101910009D84AE84BF8481149104A104B10401F1BB
:10192000888D998DAA8DBB8D88169906AA06BB064F
:10193000B8F41BC0A6DE9B01AC01623071058105C5
:10194000910508F487C0888D998DAA8DBB8D2817C5
:1019500039074A075B0708F48BC05301420105C0F1
:1019600001E0802E912CA12CB12C7501640108940A
:10197000C11CD11CE11CF11C888D998DAA8DBB8DD9
:10198000C816D906EA06FB0660F022E0821691042A
:10199000A104B10408F468C012E0C12ED12CE12CDE
:1019A000F12CCE01B701A6016CDE9B01AC016115E3
:1019B000710581059105A9F02F3F8FEF38078FEF53
:1019C00048078FEF580709F453C02130310541050E
:1019D000510509F44DC0C814D904EA04FB0439F6D2
:1019E00043C0BC2CAD2C9E2C8F2CCE01A601B70180
:1019F0000FEF1FEF2FEF3FE007DD882349F541147C
:101A000051046104710441F0CE01B301A2018601C9
:101A10009701FADC8823E1F4BC86AD869E868F862A
:101A200088899989AA89BB898F3F2FEF92072FEF69
:101A3000A2072FEFB20749F00197A109B109888BDE
:101A4000998BAA8BBB8B81E08D83A701960110C077
:101A5000813029F021E030E040E050E009C02FEF74
:101A60003FEF4FEF5FEF04C020E030E040E050E098
:101A7000B901CA01DF91CF911F910F91FF90EF90B3
:101A8000DF90CF90BF90AF909F908F907F906F909E
:101A90005F904F9008952F923F924F925F926F9276
:101AA0007F928F929F92AF92BF92CF92DF92EF92EE
:101AB000FF920F931F93DF93CF9300D000D00F922C
:101AC000CDB7DEB79D838C837A018B01DC01129642
:101AD0006D917C9113978D919C910BDC8B83882366
:101AE00009F093C1EC81FD81848187FD8FC0AC81B9
:101AF000BD811A96AD90BD90CD90DC901D97AE142F
:101B0000BF04C006D10610F481FF02C0570168016E
:101B1000EC81FD81E680F7800085118516821782B1
:101B200010861186A114B104C104D10409F42FC197
:101B30000190F081E02DFA83E9836285738580E06E
:101B400090E0228130E040E050E00E944D273B01D0
:101B50004C01E114F10401051105C1F1170128013F
:101B600008942108310841085108C601B5016150A7
:101B7000704080409040A40193010E948C2779011D
:101B80008A01C201B101A40193010E948C27E216CF
:101B9000F30604071507D0F088279927DC0186197A
:101BA0009709A809B90982219321A421B521EC81C3
:101BB000FD8186839783A087B187A81AB90ACA0ACC
:101BC000DB0AE288F388048915893AC0AC81BD81BB
:101BD0001E96ED90FD900D911C915197E114F1042A
:101BE0000105110529F589819A8140E050E060E006
:101BF00070E075DE7B018C01613071058105910516
:101C000041F4EC81FD81848180688483F2E0FB8370
:101C1000FCC08FEFE8168FEFF8068FEF08078FEF05
:101C20001807C9F1EC81FD81E686F786008B118BE0
:101C3000AC81BD815296ED92FD920D931C93559708
:101C4000E114F1040105110509F05FC0A0C0EC81A9
:101C5000FD8184812081318181FF0EC0C901B801DD
:101C6000A7013DDE7B018C016115710581059105A0
:101C700049F4640153014FC0C901B801A70101DD56
:101C80007B018C01FFEFEF16FFEFFF06FFEF0F0761
:101C9000FFEF1F0759F4AC81BD8114968C91149706
:101CA000806814968C93B1E0BB83AFC0E2E0EE167F
:101CB000F1040105110508F4A4CFAC81BD81ED91BB
:101CC000FC91808D918DA28DB38DE816F9060A07DF
:101CD0001B0708F096CFAC81BD815296ED92FD9224
:101CE0000D931C935597EC81FD8186819781A0858A
:101CF000B185860D971DA81DB91D86839783A08782
:101D0000B187A618B708C808D9086A147B048C04E0
:101D10009D0408F49CCFEC81FD8186819781A0858C
:101D2000B1858A0D9B1DAC1DBD1D86839783A08741
:101D3000B18780809180D4011A968D919C911B97D8
:101D40001C0144245524C601B501A20191010E9441
:101D50008C276115710581059105C9F0C401B80191
:101D6000A70175DA3B014C016115710581059105EB
:101D700009F447CFC601B501A20191010E948C2749
:101D800079018A01E60CF71C081D191D03C0EE2419
:101D9000FF248701AC81BD81ED91FC9111972285D3
:101DA000338540E050E016966D917D918D919C9128
:101DB00019970E948C27611571058105910579F0AD
:101DC000EC81FD8186899789A08DB18DE816F90691
:101DD0000A071B0721F0E68AF78A008F118FEC8132
:101DE000FD81268137814085518582859385A48533
:101DF000B58582179307A407B50738F42287338780
:101E0000448755878481806284838B810F900F90F3
:101E10000F900F900F90CF91DF911F910F91FF9036
:101E2000EF90DF90CF90BF90AF909F908F907F907A
:101E30006F905F904F903F902F900895CF92DF92D8
:101E4000EF92FF920F931F93CF93DF937C016B016F
:101E5000DC0115967C936E93149716964D915D91C7
:101E60006D917C911997413051056105710509F417
:101E7000BDC0ED91FC91808D918DA28DB38D4817E1
:101E800059076A077B0708F0B1C041155105610584
:101E90007105B1F58081833049F444A155A166A153
:101EA00077A1411551056105710551F5F7011286BC
:101EB0001386148615860190F081E02D808591852A
:101EC000C816D90608F092C062857385A5E076959C
:101ED0006795AA95E1F7C6010E94782780E090E017
:101EE00024A135A146A157A1620F731F841F951F1E
:101EF000D7011E966D937D938D939C9351975AC0F5
:101F0000228130E082859385E5E096958795EA9574
:101F1000E1F7289F8001299F100D389F100D112493
:101F200023C0CE01AEDBAB01BC014F3FBFEF5B076F
:101F3000BFEF6B07BFEF7B0711F481E058C0423061
:101F400051056105710508F451C0D701ED91FC916F
:101F5000808D918DA28DB38D481759076A077B0735
:101F600008F044C0C01AD10AF701C081D181C0165F
:101F7000D106B8F6D7011A964D935D936D937C9375
:101F80001D97CE0164D98B019C016A857B8545E054
:101F9000769567954A95E1F7C6010E94782780E01B
:101FA00090E0600F711F821F931FF701668777878C
:101FB000808B918BD701ED91FC916285738535E023
:101FC000769567953A95E1F7C6010E94782725E056
:101FD000880F991F2A95E1F7C096E80FF91FD701DE
:101FE0005396FC93EE93529780E001C082E0DF911C
:101FF000CF911F910F91FF90EF90DF90CF900895B8
:102000002F923F924F925F926F927F928F929F9208
:10201000AF92BF92CF92DF92EF92FF920F931F93F6
:10202000DF93CF93CDB7DEB727970FB6F894DEBF17
:102030000FBECDBF9F838E83062FF72E1A013D83DF
:102040002C83D9011D921C92FC01628173818081D5
:1020500091814FD98B83882309F0FAC1AE81BF816A
:1020600014968C9187FF02C0B2E08FC081FD03C03F
:10207000E7E0EB83EDC1AE81BF811A962D913D91D2
:102080004D915C911D97C101A0E0B0E0820F931FBC
:10209000A41FB51F82179307A407B50710F42224C5
:1020A0003324802F9F2D9C013A832983ACC1EE817C
:1020B000FF81C680D780E084F18460807180D30185
:1020C0001A968D919C911B974C01AA24BB24C701A1
:1020D000B601A50194010E948C2761157105810547
:1020E000910509F01EC1C701B601A50194010E9426
:1020F0008C27F30102810150022309F04EC0C11464
:10210000D104E104F104D1F4AE81BF811E966D913A
:102110007D918D919C915197611571058105910576
:10212000E9F4C30140E050E060E070E0D8DBEE810C
:10213000FF8166877787808B918B0AC0AE81BF81D4
:1021400052964D915D916D917C915597C301C7DB7E
:10215000611571058105910509F459C16130710559
:102160008105910509F448C06F3F2FEF72072FEFEB
:1021700082072FEF920759F4AE81BF8114968C919C
:102180001497806814968C93B1E0BB8361C1EE8193
:10219000FF81628B738B848B958BAE81BF81ED91B8
:1021A000FC91119724A535A546A557A55696CD9027
:1021B000DD90ED90FC9059972C153D054E055F057F
:1021C00049F4CF0140E050E060E070E0A7D88823F8
:1021D00009F0BFC0AE81BF81ED90FC90119752967F
:1021E0004D915D916D917C915597C70130D86115E6
:1021F00071058105910539F4EE81FF818481806844
:102200008483F2E0ACC03B014C01600E711C811C68
:10221000911CD7011A966D917C911B97C1010E9468
:1022200078272B016115710509F455C0F70122814A
:10223000402F50E0CB01840F951F30E0281739075D
:1022400018F42901441A550AD70111968C91698115
:102250007A81A4019301042D0E94F008882309F0DB
:1022600078C0AE81BF81AD90BC90F501C4A4D5A467
:10227000E6A4F7A4C618D708E808F908C201A0E048
:10228000B0E0C816D906EA06FB06B8F40285138545
:10229000980140E050E0C701B6010E944D27298116
:1022A0003A81620F731FC501C096A8010E940609FA
:1022B000AE81BF81ED91FC911482AE81BF81ED9121
:1022C000FC9182859385489E7001499EF00C589E32
:1022D000F00C112477C0EE81FF8126813781408583
:1022E000518582859385A485B585281739074A07C6
:1022F0005B0788F0C70140E050E060E070E00ED876
:10230000882309F039CFAE81BF81ED91FC9164A69D
:1023100075A686A697A6EE81FF81668A778A808E4B
:10232000918EAE81BF811696CD90DD90ED90FC90A0
:102330001997ED91FC911197A284B38456964D9113
:102340005D916D917C915997CF010E948E098823F0
:1023500041F0EE81FF81848180688483F1E0FB831A
:1023600077C0950140E050E0C701B6010E948C277C
:102370009501261B370B71012215330508F47901ED
:10238000AE81BF810D911C911197F8012285338593
:1023900040E050E016966D917D918D919C9119973A
:1023A0000E948C27605D7F4FC801860F971F69814F
:1023B0007A81A7010E940609AE81BF81ED91FC914F
:1023C000B1E0B483E981FA81EE0DFF1DFA83E98360
:1023D000C701A0E0B0E0EE81FF8126813781408512
:1023E0005185280F391F4A1F5B1F2683378340877B
:1023F0005187EC81FD81808191818E0D9F1D91839C
:1024000080832E183F082114310409F050CEAE818C
:10241000BF8116962D913D914D915C9119971A9619
:102420008D919D910D90BC91A02D82179307A407CB
:10243000B50730F4EE81FF812287338744875587C3
:10244000AE81BF8114968C911497806214968C9300
:102450008B8127960FB6F894DEBF0FBECDBFCF910C
:10246000DF911F910F91FF90EF90DF90CF90BF9081
:10247000AF909F908F907F906F905F904F903F9024
:102480002F9008958F929F92AF92BF92CF92DF923A
:10249000EF92FF920F931F93CF93DF93EC014B01C9
:1024A000AC80BD800894A11CB11CA114B10409F436
:1024B00000C10E851F85288939890115110521055F
:1024C000310509F4F6C0E881F9816285738595E0EC
:1024D000769567959A95E1F7C5010E947827892B33
:1024E00009F0CDC00F5F1F4F2F4F3F4F0E871F8743
:1024F000288B398BEA84FB840C851D85E114F1045B
:102500000105110539F480859185A816B90608F4EE
:10251000B6C0CFC0228130E0215030406285738543
:1025200085E0769567958A95E1F7C5010E94782741
:1025300026233723232B09F0A2C0CF01B801A7011E
:10254000A0D86B017C0182E0C816D104E104F1043B
:1025500008F4B1C0EFEFCE16EFEFDE06EFEFEE06B8
:10256000EFEFFE0609F4A9C0E881F981808D918D15
:10257000A28DB38DC816D906EA06FB0608F471C011
:10258000892809F496C04A855B856C857D85CF01D5
:10259000A6D96B017C01611571058105910511F4C6
:1025A00087E08CC0613071058105910509F483C015
:1025B0008FEFC8168FEFD8068FEFE8068FEFF8067B
:1025C00009F47BC08881998140E050E060E070E0D0
:1025D0000E948E09882309F070C0E881F981428544
:1025E0005385CF01C09660E070E00E941E0908810B
:1025F0001981C801B701A6010E942709F80164A743
:1026000075A786A797A710E001E01AC00483888108
:10261000998140E050E060E070E00E948E098823DC
:1026200009F04BC0E881F98184A595A5A6A5B7A5B9
:102630000196A11DB11D84A795A7A6A7B7A71F5FE7
:10264000E881F9818281181708F384A595A5A6A5CC
:10265000B7A5811B9109A109B10984A795A7A6A7D0
:10266000B7A7CA86DB86EC86FD8688819981B7018B
:10267000A6010E9427096E877F87888B998BBD8270
:10268000AC82E881F9816285738515E0769567955E
:102690001A95E1F7C5010E947827B5E0880F991FC8
:1026A000BA95E1F7C096E80FF91FFB8BEA8B80E043
:1026B00005C084E003C082E001C081E0DF91CF91DA
:1026C0001F910F91FF90EF90DF90CF90BF90AF9050
:1026D0009F908F9008950F93CF93DF93EC019A0111
:1026E000AB01BC01605D7F4F898101E00E94FB0866
:1026F000882311F063E06DC0C15DDD4F988180E0FB
:102700002A91CE52D24030E0822B932B85559A4AA3
:1027100011F062E05EC0C759DF4F288130E040E031
:1027200050E0522F4427332722278A9190E0A0E0DF
:10273000B0E0DC0199278827282B392B4A2B5B2B0B
:102740002297899190E0A0E0B0E0282B392B4A2B0A
:102750005B2B9881C756D04080E0A0E0B0E0282BEA
:10276000392B4A2B5B2B5070265431444445504042
:1027700011F460E02EC060E0CB57DF4F288130E0DD
:1027800040E050E0522F4427332722278A9190E0DF
:10279000A0E0B0E0DC0199278827282B392B4A2BB1
:1027A0005B2B2297899190E0A0E0B0E0282B392B99
:1027B0004A2B5B2B988180E0A0E0B0E0282B392BDE
:1027C0004A2B5B2B5070265431444445504009F04D
:1027D00061E0862FDF91CF910F9108950F931F93A2
:1027E000CF93DF93EC016A817B81888199810E947C
:1027F0007909982F882309F0E2C08C8185FFDFC01A
:102800004A8D5B8D6C8D7D8D888199810E948E09AA
:10281000982F882309F0D3C00E8D1F8DF801838572
:10282000806283878A85848F8B85858F8A859B8547
:10283000AC85BD85CD01AA27BB27868F8A859B8560
:10284000AC85BD858B2F9927AA27BB27878F8E85BF
:10285000828F8F85838F8E859F85A889B989CD01C9
:10286000AA27BB27848B8E859F85A889B989CD012E
:10287000AA27BB27892F9927858B0E948C08F801EE
:10288000668B272F3327278B9C0144275527208FC2
:10289000692F772788279927618F8C818F7D8C837B
:1028A000E881F98181E084830990D881C02DCE012F
:1028B00040E050E060E070E00E948E09982F88238D
:1028C00009F07DC08881833009F070C08D81882334
:1028D00009F46CC01CA61DA61EA61FA68E01005DD5
:1028E0001F4FC80160E070E040E052E00E941E0906
:1028F000C25DDD4F85E589938AEA8883CF52D24055
:1029000082E588AB89AB21E62AAB91E49BABCC5E38
:10291000DD4F82E78993899399932883C751D240E9
:102920008889C85EDD4F8883C851D2408989C75ED7
:10293000DD4F8883C951D24088899989AA89BB898A
:102940009D0144275527C65EDD4F288321968B2F96
:102950009927AA27BB278883CB51D2408C85C45E98
:10296000DD4F8883CC51D2408D85C35EDD4F888397
:10297000CD51D2408C859D85AE85BF859D01442774
:102980005527C25EDD4F288321968B2F9927AA27D2
:10299000BB278883CF51D2402C893D894E895F89DE
:1029A0008981B80101E00E94F0081D82898160E000
:1029B00040E050E00E948608811181E0982F892F25
:1029C000DF91CF911F910F910895CF93DF93EC0189
:1029D00005DF882311F419821882DF91CF910895C1
:1029E0002F923F924F925F926F927F928F929F921F
:1029F000AF92BF92CF92DF92EF92FF920F931F930D
:102A0000DF93CF93CDB7DEB7E7970FB6F894DEBF6D
:102A10000FBECDBF9DAB8CAB7FAB6EABDC011D920F
:102A20001C924F714BA7FB018081282F30E020536F
:102A300030402A30310558F481818A3341F432968E
:102A4000FFABEEAB232B19F02BE0F22E18C4C09095
:102A50002406D0902506DE86CD86C114D10419F453
:102A60009CE0F92E0CC4FBA4FEEFFF22D6018C9152
:102A7000882361F011968C910E94840880FD06C025
:102A8000FF2009F4F5C382FDF0C3F2C3F601108202
:102A9000118280E00E948208082F80FF03C083E03B
:102AA000F82EEDC3A601465F5F4FD60111968C91BB
:102AB00062E00E948608882309F0DCC3FF2011F041
:102AC00002FDD3C3C60140E050E060E070E003DEE9
:102AD000813029F018AA19AA1AAA1BAA32C0F60135
:102AE000E251FE4F8481882309F4C7C3838590E0B7
:102AF000A0E0B0E0582F442733272227828590E0BA
:102B0000A0E0B0E0DC0199278827282B392B4A2B3D
:102B10005B2B808590E0A0E0B0E0282B392B4A2B7E
:102B20005B2B918580E0A0E0B0E0282B392B4A2B6D
:102B30005B2B28AB39AB4AAB5BABC601BA01A90131
:102B4000CADD833009F496C3882309F096C3D60101
:102B5000DC969C91DC9780E0DB962C91DB9730E053
:102B6000822B932B1A962D913C911B9782179307DA
:102B700009F083C3E7E4F0E0CE0EDF1ED6019C919E
:102B800080E0F60122916F014AEB5FEFC40ED51E83
:102B900030E0822B932B3C0188249924611471042A
:102BA00081049104A9F567E570E0C60ED71ED60131
:102BB0008C9190E0A0E0B0E0982E882477246624E1
:102BC000F60182916F0190E0A0E0B0E0DC0199276E
:102BD0008827682A792A8A2A9B2A2EEF3FEFC20E7D
:102BE000D31ED6018D916D0190E0A0E0B0E0682A7F
:102BF000792A8A2A9B2AF60190812BEA3FEFC20E9E
:102C0000D31E80E0A0E0B0E0682A792A8A2A9B2AB5
:102C1000D6015C966D927D928D929C925F97E0E4D6
:102C2000F0E0CE0EDF1ED6014C91E0ECFFEFCE0EB1
:102C3000DF1ED60113964C931397842F8150823058
:102C400008F01BC3DD962C91DD9712962C9322235E
:102C500009F413C330E0C901019782239323892B20
:102C600009F00BC3E2E4F0E0CE0EDF1ED6019C912A
:102C700080E0F60122916F016FEB7FEFC60ED71E49
:102C8000422E5524482A592AD60119965C924E9212
:102C900018971A962D903C901B9775E036942794C0
:102CA0007A95E1F7C201B1010E947827892B09F0DA
:102CB000E4C2E4E4F0E0CE0EDF1ED6019C9180E099
:102CC000F60122916F016DEB7FEFC60ED71E30E04B
:102CD000822B932B7C0100E010E0E114F10401054C
:102CE0001105A9F583E590E0C80ED91ED6018C9197
:102CF00090E0A0E0B0E0182F0027FF24EE24F601BA
:102D000082916F0190E0A0E0B0E0DC019927882774
:102D1000E82AF92A0A2B1B2B2EEF3FEFC20ED31EF7
:102D2000D6018D916D0190E0A0E0B0E0E82AF92A8B
:102D30000A2B1B2BF60190812FEA3FEFC20ED31E08
:102D400080E0A0E0B0E0E82AF92A0A2B1B2BD6018C
:102D5000DF969C91DF9780E0DE962C91A22EBB241B
:102D6000A82AB92AA114B10409F487C2242F30E09B
:102D700040E050E0C401B3010E944D276BA37CA347
:102D80008DA39EA3950140E050E02CA73DA74EA740
:102D90005FA7C201B1010E9478274B01AA24BB247E
:102DA0004CA55DA56EA57FA5840E951EA61EB71E1B
:102DB0006BA17CA18DA19EA1860E971EA81EB91E97
:102DC000E814F9040A051B0508F457C2E818F908C5
:102DD0000A091B09D60112962C9130E040E050E020
:102DE000C801B7010E948C27C901DA010097A1052B
:102DF000B10509F442C2863FEFE09E07E0E0AE076E
:102E0000E0E0BE0718F4332433940DC0863FFFEF93
:102E10009F07F0E0AF07F0E0BF0718F043E0342E63
:102E200002C032E0332E22E0422E512C612C712C54
:102E3000480E591E6A1E7B1ED60158964D925D9211
:102E40006D927C925B9728A939A94AA95BA9820E49
:102E5000931EA41EB51E98968D929D92AD92BC9223
:102E60009B9728A939A94AA95BA96CA57DA58EA520
:102E70009FA5260F371F481F591F90962D933D93EE
:102E80004D935C93939718968D919C911997B3E00D
:102E90003B1609F049C0892B09F0EFC1EFE5F0E0DE
:102EA000CE0EDF1ED6012C9130E040E050E0522FD4
:102EB000442733272227F60182916F0190E0A0E09A
:102EC000B0E0DC0199278827282B392B4A2B5B2B74
:102ED0006EEF7FEFC60ED71ED6018D916D0190E08B
:102EE000A0E0B0E0282B392B4A2B5B2BF601908118
:102EF00063EA7FEFC60ED71E80E0A0E0B0E0282B8B
:102F0000392B4A2B5B2BD60194962D933D934D93F1
:102F10005C93979783017201A2E0EE0CFF1C001FE7
:102F2000111FAA95D1F734C0892B09F4A6C16BA152
:102F30007CA18DA19EA1260F371F481F591FD601C6
:102F400094962D933D934D935C939797C301B20153
:102F5000660F771F881F991FB2E03B1619F47B019B
:102F60008C0116C07B018C01E40CF51C061D171D9D
:102F700016950795F794E79421E030E040E050E0A3
:102F80004222532264227522E40CF51C061D171DF3
:102F9000D6011A962D913C911B9721503040B901D2
:102FA00080E090E02F5F3F4F6E0D7F1D801F911FCF
:102FB00040E050E00E948C27F601848D958DA68D0F
:102FC000B78D82179307A407B50708F456C18FEF92
:102FD0009FEFAFEFBFEF808B918BA28BB38BD601AE
:102FE0001C961D921D921D921C921F97B3E03B16DA
:102FF00009F024C1158221E630E0C20ED31ED601AD
:103000003C9120E0F60182916F0140EA5FEFC40E2F
:10301000D51E90E0282B392B40E050E068A979A913
:103020008AA99BA9260F371F481F591FD6015496FE
:103030002D933D934D935C935797B601605D7F4F01
:1030400011968C9101E00E94FB08882309F0F6C0DC
:10305000EFE2F2E0CE0EDF1ED6019C9180E0F60199
:1030600022916F0142ED5DEFC40ED51E30E0822B40
:10307000932B85559A4A09F0E1C0D601D3962C913D
:10308000D39730E040E050E0522F442733272227E7
:10309000D2968C9190E0A0E0B0E0DC0199278827DF
:1030A000282B392B4A2B5B2BF60180A990E0A0E05E
:1030B000B0E0282B392B4A2B5B2B91A980E0A0E0B4
:1030C000B0E0282B392B4A2B5B2B22553245414649
:1030D000514409F0B3C027E132E0C20ED31ED6013D
:1030E0002C9130E040E050E0522F44273327222734
:1030F000F60182916F0190E0A0E0B0E0DC01992739
:103100008827282B392B4A2B5B2B6EEF7FEFC60EBF
:10311000D71ED6018D916D0190E0A0E0B0E0282B84
:10312000392B4A2B5B2BF60190816BEE7DEFC60E9F
:10313000D71E80E0A0E0B0E0282B392B4A2B5B2B78
:10314000225732474144514609F078C08FE192E05E
:10315000C80ED91ED6012C9130E040E050E0522F2D
:10316000442733272227F60182916F0190E0A0E0E7
:10317000B0E0DC0199278827282B392B4A2B5B2BC1
:103180006EEF7FEFC60ED71ED6018D916D0190E0D8
:10319000A0E0B0E0282B392B4A2B5B2BF601908165
:1031A00063EE7DEFC60ED71E80E0A0E0B0E0282BD6
:1031B000392B4A2B5B2BD6011C962D933D934D93B7
:1031C0005C931F97EBE1F2E0CE0EDF1ED6012C914F
:1031D00030E040E050E0522F442733272227F60109
:1031E00082916F0190E0A0E0B0E0DC019927882790
:1031F000282B392B4A2B5B2B6EEF7FEFC60ED71E89
:10320000D6018D916D0190E0A0E0B0E0282B392B24
:103210004A2B5B2BF601908167EE7DEFC60ED71E21
:1032200080E0A0E0B0E0282B392B4A2B5B2BD601A5
:1032300050962D933D934D935C935397F6013082B6
:1032400080912606909127060196909327068093F9
:10325000260697838683D6019C961D921D921D9209
:103260001C929F9714961C9203C05AE0F52E07C03B
:10327000FF2405C0FF24F39402C04DE0F42ECE01DC
:1032800001969AA389A3FF2009F049C1EEA9FFA9DD
:1032900080818F3211F08C3531F42EA93FA92F5F38
:1032A0003F4F3FAB2EAB1B8A1C8A1D8A1E8AAEA9DC
:1032B000BFA98C91803280F4CE010D9660E070E061
:1032C0000E941E0FF82E18A21F8E29C1EEA9FFA979
:1032D0003196FFABEEAB07C03DE0632E712C6C0E58
:1032E0007D1E25E0522EAEA9BFA98C918F3271F3BD
:1032F0008C3561F309A11AA1C80160E270E04BE0CE
:1033000050E00E941E0940E050E0EE24FF2498E0C7
:10331000C92ED12CA0E0EEA9FFA9EE0DFF1D208142
:103320000894E11CF11C213208F467C02F3209F423
:1033300003C32C3509F400C32E3219F04C155D057A
:1033400080F0B8E0CB16D10409F0E2C02E3209F0CB
:10335000DFC0AA0FAA0F48E050E08BE0C82ED12CA6
:10336000DACF27FDA360822F81588F3118F08F5557
:103370008D3110F5EEA9FFA9EE0DFF1D3081832FD1
:1033800080548F3320F080548D3708F0C1C0C601BF
:1033900001974817590708F0BBC00894E11CF11CBD
:1033A000F801E40FF51F2083CA010196F801E80F28
:1033B000F91F3083AC011EC0622F70E0EAEBF1E030
:1033C00001C031968081882329F090E08617970705
:1033D000C1F79EC0822F81548A3110F4A26006C0CA
:1033E000822F81568A3110F4A1602052F801E40F37
:1033F000F51F20834F5F5F4F8ECF64E0452B09F4AC
:1034000087C0F8018081853E09F45082F8E0CF162C
:10341000D10411F4AA0FAA0F2A2F30E0C90183703A
:103420009070019709F460612C7030702430310580
:1034300009F46860D8011B966C93C30160E070E0EA
:103440000E941E0F482F882371F54B8D5C8D6D8D6A
:103450007E8D8D859E850E948E09482F882319F5C3
:10346000EF8DF8A18081882311F444E01CC083858E
:1034700083FD13C089A19AA19C01D9012BE030E002
:10348000215030405FEF2F3F350769F090818C91DC
:10349000981719F431961196F3CFC30160E070E0EC
:1034A0000E944212CFCFE9A1FAA18385442339F0CB
:1034B000F42E64E0461779F582FF2FC030C082FDFC
:1034C0002AC0EF8DF8A1838584FF27C08EA99FA90C
:1034D0008E0D9F1D9FAB8EAB95888824248930E08C
:1034E0002829392940E050E0A90133272227B38C4D
:1034F000AA24828D90E08A299B29A0E0B0E0282BA5
:10350000392B4A2B5B2B2B8B3C8B4D8B5E8BEBCE65
:10351000B6E0FB2E04C0F42E02C0A5E0FA2E4F8CBC
:1035200058A0FF2029F44114510411F4F6E0FF2EB5
:103530009BA5292F30E0C9018C719070892B09F46B
:1035400019C1FF2009F448C0A4E0FA16E1F58E0184
:10355000035F1F4FC80160E070E00E941E0FF82E4D
:10356000882389F54B8D5C8D6D8D7E8D8D859E8537
:103570000E948E09F82E882331F5EF8DF8A1E081A5
:10358000E53E09F4B4C1EE2309F4B1C1C80161E01C
:1035900070E00E944212F82E882321F314C00F8D90
:1035A00018A1C80160E070E040E250E00E941E09EE
:1035B00069A17AA1C8014BE050E00E940609ED859F
:1035C000FE8581E084834F8C58A0FF2009F06FC1F5
:1035D000BBA5B860BBA707C0F2018385817109F064
:1035E00083C122FD7EC1FBA5F3FFD3C00E948C08DE
:1035F000D2011E966C931E97272F33271F962C936C
:103600001F979C014427552750962C935097692F5C
:1036100077278827992751966C9351971B961C9270
:103620001B975C961C925C975D961C925D975E96CC
:103630001C925E975F961C925F9755969C9155974A
:1036400080E054962C9130E0822B932BA0E0B0E0E8
:103650006C01BB24AA24F201938D80E0228D30E01E
:10366000822B932BA0E0B0E0A82AB92ACA2ADB2A31
:10367000128E138E148A158AED85FE8581E084836F
:10368000A114B104C104D10409F483C02D843E8483
:10369000D1019C962D913D914D915C919F972FA3C7
:1036A00038A749A75AA7B1E0AB16B104C104D104A9
:1036B00009F45DC0F101808D918DA28DB38DA816A6
:1036C000B906CA06DB0608F052C08601750143C080
:1036D000C101B801A7010E94410B3B014C016115DA
:1036E00071058105910509F40FC1613071058105EE
:1036F0009105E9F16F3F2FEF72072FEF82072FEF50
:10370000920719F4FF24F394D2C0C101B801A701B4
:1037100000E010E020E030E00E94040AF82E882348
:1037200009F0C5C0F10180899189A289B3898F3FD1
:10373000FFEF9F07FFEFAF07FFEFBF0751F00196C5
:10374000A11DB11DF101808B918BA28BB38B21E068
:10375000258384017301F101808D918DA28DB38D3C
:10376000E816F9060A071B0708F4B2CFCDC022E01D
:10377000F22E9DC0FF2009F09AC0D2011B968C91B9
:1037800084FF03C094E0F92E92C021FF02C080FDA7
:10379000ABC0BBA5B3FF02C0B062BBA7ED85FE8581
:1037A00024A535A546A557A5ACA9BDA95A962D9324
:1037B0003D934D935C935D975F965C924E925E97BE
:1037C0002BA514962C93D20155963C91559720E049
:1037D00054968C91549790E0282B392B40E050E080
:1037E000A901332722275B969C915B9780E05A962C
:1037F0006C9170E0862B972BA0E0B0E0282B392B42
:103800004A2B5B2BACA9BDA91E962D933D934D93DE
:103810005C935197D2015F962C915F9730E040E026
:1038200050E0522F4427332722275E968C9190E058
:10383000A0E0B0E0DC0199278827282B392B4A2B00
:103840005B2BD2015C968C9190E0A0E0B0E0282B3D
:10385000392B4A2B5B2BD2015D969C9180E0A0E036
:10386000B0E0282B392B4A2B5B2BACA9BDA91A96AB
:103870002D933D934D935C931D97ACA9BDA91696CE
:103880001D921D921D921C921997ACA9BDA9569626
:103890001D921D921D921C9259971196FC93EE93C6
:1038A0008681978113969C938E931297FF248F2D78
:1038B000E7960FB6F894DEBF0FBECDBFCF91DF9174
:1038C0001F910F91FF90EF90DF90CF90BF90AF903E
:1038D0009F908F907F906F905F904F903F902F9030
:1038E0000895E8E0FE2EE3CF77E0F72EE0CF4B8D92
:1038F0005C8D6D8D7E8D8D859E850E948E09F82E46
:10390000882309F060CE4BCEED85FE850894A10892
:10391000B108C108D108A486B586C686D7868D852C
:103920009E854FA158A569A57AA50E948E09F82EFB
:10393000882309F42ECFBBCF60E060CD382F282F2D
:103940002CC02093E900231721F4762F942F50E008
:1039500006C07091EC009091ED005091F00091FF45
:103960001BC08091EB008E7F8093EB008091ED0077
:103970008D7F8093ED008091EB0081608093EB0060
:103980007093EC009093ED005093F0008091EE0066
:1039900087FD02C080E008952F5F273090F23093BA
:1039A000E90081E0089580912C0688238CF403C0FF
:1039B0008EB38823B1F08091E80082FFF9CF809127
:1039C000E8008B778093E80008958EB3882349F050
:1039D0008091E80080FFF9CF8091E8008E77809396
:1039E000E80008954091E4005091E50024E68091BC
:1039F000EC0080FF23C08091E80080FD1DC08EB3E5
:103A0000882311F482E00895853011F483E008954D
:103A10008091EB0085FF02C081E008958091E40071
:103A20009091E5008417950711F3222311F484E0A7
:103A300008952150AC01DBCF80E008958091E8002B
:103A400082FFDDCFF9CFEF92FF920F931F9349D002
:103A500050D008ED10E0F80180818F77808380815D
:103A60008068808380818F7D808319BC1EBA10920C
:103A7000280610922A061092290680EEE82EF12CD4
:103A8000F70180818B7F8083F80180818160808352
:103A900080E060E042E052DFE1EEF0E080818E7F86
:103AA0008083E2EEF0E080818160808380818860A5
:103AB0008083F70180818E7F8083F801808180611F
:103AC00080831F910F91FF90EF900895E7EDF0E054
:103AD0008081816080838AE482BF81E080932B06AD
:103AE000B2CFE8EDF0E080818E7F80831092E2001B
:103AF00008951092DA001092E10008951F920F923B
:103B00000FB60F9211241F932F933F934F935F9300
:103B10006F937F938F939F93AF93BF93EF93FF9395
:103B2000E9EEF0E0108117701082E0EFF0E08081A4
:103B3000877F8083789424D3A9EEB0E01C92E0EFD5
:103B4000F0E08081886080831C93FF91EF91BF91AA
:103B5000AF919F918F917F916F915F914F913F9125
:103B60002F911F910F900FBE0F901F9018951F92CD
:103B70000F920FB60F9211242F933F934F935F93A1
:103B80006F937F938F939F93AF93BF93EF93FF9325
:103B90008091E10082FF0AC08091E20082FF06C0AE
:103BA0008091E1008B7F8093E10056D48091DA0010
:103BB00080FF1DC08091D80080FF19C08091DA007D
:103BC0008E7F8093DA008091D90080FF0CC080E165
:103BD00089BD82E189BD09B400FEFDCF81E08EBBC5
:103BE0000E94FE0104C019BC1EBA0E9461028091AD
:103BF000E10080FF17C08091E20080FF13C0809138
:103C0000E2008E7F8093E2008091E20080618093E9
:103C1000E2008091D80080628093D80019BC85E0D2
:103C20008EBB1AD48091E10084FF2CC08091E20009
:103C300084FF28C080E189BD82E189BD09B400FE0E
:103C4000FDCF8091D8008F7D8093D8008091E100D6
:103C50008F7E8093E1008091E2008F7E8093E2006E
:103C60008091E20081608093E200809128068823A1
:103C700031F48091E30087FD02C081E001C084E05F
:103C80008EBBEAD38091E10083FF26C08091E200E1
:103C900083FF22C08091E100877F8093E10082E072
:103CA0008EBB109228068091E1008E7F8093E10008
:103CB0008091E2008E7F8093E2008091E20080613B
:103CC0008093E20080E060E042E038DE8091F00026
:103CD00088608093F000C0D3FF91EF91BF91AF91C6
:103CE0009F918F917F916F915F914F913F912F9114
:103CF0000F900FBE0F901F9018959C0140913206B7
:103D0000509133064617570718F4F90190E044C064
:103D10006115710511F0AB01F8CF8091E8008E7745
:103D20008093E80040E050E0F0CF8EB3882309F4A0
:103D300044C0853009F443C08091E80083FF02C08D
:103D400081E008958091E80082FD31C08091E80013
:103D500080FF22C08091F3009091F200782F60E004
:103D6000292F30E0262B372B07C081918093F1005B
:103D7000415050402F5F3F4F4115510519F02830F9
:103D8000310598F390E02830310509F491E08091F5
:103D9000E8008E778093E8004115510531F69923AC
:103DA00021F605C08EB3882341F0853041F0809123
:103DB000E80082FFF7CF80E0089582E0089583E075
:103DC00008959C016115710529F48091E8008B77B5
:103DD0008093E800F90126C08EB3882391F18530E5
:103DE00091F18091E80083FF02C081E00895809105
:103DF000E80082FFF1CF06C08091F100819361500D
:103E0000704059F02091F3008091F200322F20E0B1
:103E100090E0822B932B892B79F78091E8008B77A8
:103E20008093E80061157105B9F605C08EB388234B
:103E300041F0853041F08091E80080FFF7CF80E0CD
:103E4000089582E0089583E008959C014091320630
:103E5000509133064617570718F4F90190E045C012
:103E60006115710511F0AB01F8CF8091E8008E77F4
:103E70008093E80040E050E0F0CF8EB3882309F44F
:103E800046C0853009F445C08091E80083FF02C038
:103E900081E008958091E80082FD33C08091E800C0
:103EA00080FF23C08091F3009091F200782F60E0B2
:103EB000292F30E0262B372B08C084918093F10006
:103EC0003196415050402F5F3F4F4115510519F039
:103ED0002830310590F390E02830310509F491E065
:103EE0008091E8008E778093E8004115510529F60E
:103EF000992309F0C2CF05C08EB3882341F08530E5
:103F000041F08091E80082FFF7CF80E0089582E0E1
:103F1000089583E00895BF92CF92DF92EF92FF92CF
:103F20000F931F93CF93DF93182F092F7B016A0103
:103F300059DDB82E8823A9F5812F902F9C01E90126
:103F4000C114D10439F0F60180819181E81AF90A8F
:103F5000C80FD91F00E010E021C08091E80085FD66
:103F600015C08091E8008B778093E800C114D104DC
:103F700049F0F60180819181800F911F91838083A8
:103F800085E010C02FDD882349F00CC08091F1003E
:103F900089930894E108F1080F5F1F4FE114F104C1
:103FA000E1F68B2DDF91CF911F910F91FF90EF9054
:103FB000DF90CF90BF900895BF92CF92DF92EF92A3
:103FC000FF920F931F93CF93DF938C01EB016A0154
:103FD00009DDB82E8823B1F521970C0F1D1F2196FE
:103FE000C114D10439F0F60180819181C81BD90B2D
:103FF000081B190BEE24FF2423C08091E80085FDE7
:1040000015C08091E8008E778093E800C114D10438
:1040100049F0F601808191818E0D9F1D91838083EF
:1040200085E011C0DFDC882359F00DC0F8018081E4
:104030008093F1000150104021970894E11CF11C7D
:104040002097D9F68B2DDF91CF911F910F91FF9083
:10405000EF90DF90CF90BF900895BF92CF92DF9204
:10406000EF92FF920F931F93CF93DF93182F092F97
:104070007B016A01B7DCB82E8823A9F5812F902F28
:104080009C01E901C114D10439F0F60180819181CC
:10409000E81AF90AC80FD91F00E010E021C080918A
:1040A000E80085FD15C08091E8008E778093E800D8
:1040B000C114D10449F0F60180819181800F911FD4
:1040C0009183808385E010C08DDC882349F00CC08B
:1040D00089918093F1000894E108F1080F5F1F4F68
:1040E000E114F104E1F68B2DDF91CF911F910F9137
:1040F000FF90EF90DF90CF90BF900895DF92EF9206
:10410000FF920F931F93CF93DF93EC018B016ADC37
:10411000D82E882361F50115110529F0F801808159
:104120009181C81BD90BEE24FF241FC08091E800A9
:1041300085FD15C08091E8008E778093E800011519
:10414000110549F0F801808191818E0D9F1D9183A9
:10415000808385E00DC046DC882339F009C01092C9
:10416000F10021970894E11CF11C2097F9F68D2DA0
:10417000DF91CF911F910F91FF90EF90DF90089505
:104180000F931F93DF93CF93CDB7DEB7AC970FB6E6
:10419000F894DEBF0FBECDBFECE2F6E08091F100F7
:1041A000819326E0E433F207C9F70E9487018091EA
:1041B000E80083FF38C180912C0630912D06353000
:1041C00009F487C0363040F43130C9F1313070F035
:1041D000333009F028C133C0383009F4F6C0393023
:1041E00009F405C1363009F01EC196C0803821F0AF
:1041F000823809F018C108C09091290680912A06DA
:10420000882399F0926011C0809130068770809366
:10421000E9008091EB0090E025E0969587952A953E
:10422000E1F7982F91701092E9008091E800877F64
:104230008093E8009093F1001092F100D1C08823A0
:1042400019F0823009F0EFC090E08F719070009704
:1042500021F0029709F0E7C00CC080912E06813052
:1042600009F0E1C010922A06333069F580932A06DE
:104270002AC080912E06882331F5209130062770C0
:1042800009F4D1C02093E9008091EB0080FF1BC0AE
:10429000333021F48091EB00806213C08091EB00F9
:1042A00080618093EB0081E090E002C0880F991F4D
:1042B0002A95E2F78093EA001092EA008091EB00E1
:1042C00088608093EB001092E9008091E800877F7E
:1042D0008AC0882309F0A7C010912E061F770FB758
:1042E000F8948091E800877F8093E8005CDB809100
:1042F000E80080FFFCCF8091E3008078812B8093E1
:10430000E30080688093E300112311F482E001C090
:1043100083E08EBB0FBF87C08058823008F083C017
:1043200080912E0690912F0623E08C3D920709F094
:1043300033C083E08C838AE28B837FB7F894DE01FD
:1043400015966EE040E050E011E2E62FF0E01093A9
:104350005700849140FF03C082958F706F5F8F700C
:10436000282F30E08A3018F0C901C79602C0C90171
:10437000C0968D939D934F5F5F4F4431510529F750
:104380007FBF8091E800877F8093E800CE0103968D
:104390006AE270E0B2DC13C060913006AE014F5F9C
:1043A0005F4F0E943203BC01009709F43CC080912A
:1043B000E800877F8093E80089819A8146DD8091BB
:1043C000E8008B778093E8002EC0803861F58091FB
:1043D000E800877F8093E800809128068093F100B1
:1043E0008091E8008E778093E800DDDA1CC0882396
:1043F000D1F490912E069230B0F48091E800877F3E
:104400008093E80090932806CEDA809128068823CE
:1044100031F48091E30087FD02C081E001C084E0B7
:104420008EBB0E948F018091E80083FF0AC08091BB
:10443000EB0080628093EB008091E800877F80939F
:10444000E800AC960FB6F894DEBF0FBECDBFCF919B
:10445000DF911F910F91089508951F938EB38823C4
:1044600061F01091E9001092E9008091E80083FF6B
:1044700001C086DE17701093E9001F9108954F92D6
:104480005F926F927F928F929F92AF92BF92CF92E4
:10449000DF92EF92FF920F931F93DF93CF9300D0A1
:1044A0000F92CDB7DEB77C016DB67EB68EB3843089
:1044B00009F086C0F70181818093E9008091E800CE
:1044C00085FF7EC05DB64EB647818DB79EB7841B13
:1044D00091090FB6F8949EBF0FBE8DBF0DB71EB7E2
:1044E0000F5F1F4F19821B821A82C02E912EC801A6
:1044F00060E070E050E048D5C701BE016F5F7F4FBC
:1045000040E098018E010E5F1F4F0E946C01882EC3
:10451000F70181859285892B19F4AA24BB240BC04D
:1045200020E0F70183859485892B09F021E081E063
:104530002827A22EBB24F70105811681011511053C
:1045400011F4DD2412C04A815B818C2D992DB801B4
:1045500005D5DD24009711F0DD24D394F7014781C0
:10456000C8016C2D792D50E006D58A819B81892B5D
:10457000F9F0882021F4DD2011F4AB28C9F0F7010F
:10458000818592859487838781818093E9008981E1
:10459000882311F08093F1006A817B818C2D992D05
:1045A00040E050E05ADD8091E8008E778093E8008B
:1045B000852D942D9C010FB6F8943EBF0FBE2DBFE4
:1045C0000FB6F8947EBE0FBE6DBE0F900F900F9089
:1045D000CF91DF911F910F91FF90EF90DF90CF90DF
:1045E000BF90AF909F908F907F906F905F904F9013
:1045F0000895CF93DF93DC010896FC0185E0EF017D
:1046000019928A95E9F781E018968C93189784EFB0
:1046100091E01A969C938E93199711963C9111975D
:1046200012966D917C91139714968C91882311F4B6
:1046300040E001C044E020E088E090E003C02F5F4C
:10464000880F991F86179707D0F342602295207F25
:10465000422B832F61EC72D9811181E0DF91CF91E0
:1046600008956F927F928F929F92AF92BF92CF9256
:10467000DF92EF92FF920F931F93DF93CF9300D0BF
:104680000F92CDB7DEB76C016DB67EB68091E800B3
:1046900083FF0CC1F601808190E0209130063091BB
:1046A00031062817390709F001C180912D068330A2
:1046B00009F4ACC0843030F4813071F0823009F0FC
:1046C000F5C0DCC08A3009F4C1C08B3009F4ABC03E
:1046D000893009F0EBC056C080912C06813A09F070
:1046E000E5C09DB68EB61B821A8280912E0610916F
:1046F0002F068983F60147818DB79EB7841B9109E8
:104700000FB6F8949EBF0FBE8DBFEDB6FEB60894EF
:10471000E11CF11CBE2CAF2CC70160E070E050E042
:1047200033D41150C601BE016F5F7F4F412F9701F7
:104730008E010E5F1F4F0E946C01F60125813681AC
:104740002115310529F04781C901B70150E013D483
:104750001092E9008091E800877F8093E8006A81E9
:104760007B818B2D9A2DC9DA8091E8008B7780931D
:10477000E800292D382DC9010FB6F8949EBF0FBE51
:104780008DBF94C080912C06813209F08FC09DB6F8
:104790008EB60091320610913306A0902E06B0908E
:1047A0002F068DB79EB7801B910B0FB6F8949EBF56
:1047B0000FBE8DBFEDB6FEB60894E11CF11C8091D2
:1047C000E800877F8093E800C701B801FADA80919A
:1047D000E8008E778093E80080E090E0AA2011F056
:1047E00081E090E0BA94E80EF91E081B190BC6018F
:1047F0006A2D4B2D97010E945801892D982D9C01FF
:104800000FB6F8943EBF0FBE2DBF50C080912C064E
:10481000813A09F04BC08091E800877F8093E800DF
:10482000F60180853BC080912C06813209F03EC0A4
:104830008091E800877F8093E800B5D890E0809170
:104840002E06811191E0F601908730C080912C06F0
:10485000813261F58091E800877F8093E800A3D8DA
:1048600080912E0690912F06807076E09695879520
:104870007A95E1F7F6019287818718C080912C061E
:10488000813AA1F48091E800877F8093E800F601E7
:104890008185928596958795969587958093F10069
:1048A0008091E8008E778093E8007DD80FB6F89469
:1048B0007EBE0FBE6DBE0F900F900F90CF91DF9117
:1048C0001F910F91FF90EF90DF90CF90BF90AF902E
:1048D0009F908F907F906F900895CF92DF92EF928C
:1048E000FF920F931F93DF93CF9300D0CDB7DEB726
:1048F0008C018EB3843009F007C1F8019581909343
:10490000E9008091E80085FFC9C09093E9001A8210
:1049100019822AE0E22EF12CE00EF11E6E010894BD
:10492000C11CD11C05C0F80186A9882309F0B6C0B6
:10493000C7016FE070E0A601EEDA8530A1F3F8015F
:1049400082859385A485B58585559345A244B34456
:1049500081F4F80197898185981758F4868990E049
:104960008F719070892B29F4808D882311F081310B
:1049700078F08091EB0080628093EB00F8018181F8
:104980008093E9008091EB0080628093EB0086C009
:104990001A82198299E1E92EF12CE00EF11E6E01C6
:1049A0000894C11CD11C05C0F80186A9882309F010
:1049B00075C0F801608DC70170E0A601ACDA8530E2
:1049C00099F38091E8008B778093E800F80186895D
:1049D00087FF03C081818093E900C8010E948301A1
:1049E00091E09827F80195AB25E533E542E453E5DE
:1049F00021A732A743A754A7268537854089518927
:104A000025A736A747A750AB228933894489558902
:104A100021AB32AB43AB54AB882351F421153105A4
:104A20004105510529F08091EB0080628093EB00F5
:104A3000F80185818093E90004C0F80186A98823E4
:104A400069F58091EB0085FDF8CFF80181818093B5
:104A5000E90004C0F80186A9882301F58091EB00E4
:104A600085FDF8CF1A82198289E2E82EF12CE00E3A
:104A7000F11E6E010894C11CD11C04C0F80186A966
:104A8000882361F4C7016DE070E0A601E6DA8530A5
:104A9000A9F38091E8008E778093E800F80186A959
:104AA000882391F1458121E030E0C901042E02C044
:104AB000880F991F0A94E2F78093EA001092EA00A7
:104AC0009181092E02C0220F331F0A94E2F720932E
:104AD000EA001092EA004093E9008091EB008061C7
:104AE0008093EB008091EB0088608093EB009093C3
:104AF000E9008091EB0080618093EB008091EB00F6
:104B000088608093EB0016AA0F900F90CF91DF91F1
:104B10001F910F91FF90EF90DF90CF9008951F931A
:104B2000CF93DF93EC010A96FC018DE2DF011D9229
:104B30008A95E9F711E08981181729F46A817B8148
:104B40008C8130E807C08D81181701F56E817F8157
:104B5000888530E0882311F440E001C044E020E083
:104B600088E090E003C02F5F880F991F8617970792
:104B7000D0F360E0311161E0606842602295207FEF
:104B8000422B812F0E949E1C882321F01F5F17302B
:104B900091F681E0DF91CF911F910895CF93DF933C
:104BA000EC018091E80083FF31C0888190E0209182
:104BB0003006309131062817390741F580912D06CE
:104BC0008E3F81F08F3F11F580912C068132F1F4F8
:104BD0008091E800877F8093E8000E94D31C81E0E9
:104BE0008EAB14C080912C06813A81F48091E8004C
:104BF000877F8093E800898581508093F1008091C0
:104C0000E8008E778093E8000E94D31CDF91CF915B
:104C1000089580E480937C0080917B008F7D809359
:104C20007B0080917A00806480937A0080917A0082
:104C300084FFFCCF80917A00806180937A0060913C
:104C400078007091790045E851E0FA0185919491DE
:104C50008617970710F48BEE089520E030E0FA01F4
:104C6000859194918617970718F4822F855108959E
:104C70002F5F3F4F4E5F5F4F2837310581F782E648
:104C80000895782F84EA8093BC0084E6689FA00191
:104C900011249A0160E0F5E3E4EA1EC08091BC00B3
:104CA00087FF17C08091B90090E0887F90708031B5
:104CB000910571F08833910519F0089721F408C027
:104CC000E093BC0009C084E08093BC0081E00895BB
:104CD00061E08F2F8A95F1F7215030408FEF2F3F01
:104CE000380711F06623D1F2232B29F484E0809356
:104CF000BC0082E008957093BB0084E88093BC0000
:104D000095E307C08091BC0087FD09C0892F8A9573
:104D1000F1F7415050408FEF4F3F580799F7452B1F
:104D200011F483E008958091B90090E0887F90703D
:104D30008831910519F08034910511F480E00895CF
:104D400084E98093BC0084E008958093BB0084E8EC
:104D50008093BC008091BC0087FFFCCF8091B9009C
:104D600090E0887F883209F491E0892F0895FC0152
:104D7000662311F484EC01C084E88093BC00809128
:104D8000BC0087FFFCCF8091BB0080839091B9006D
:104D9000987F662329F080E0983531F481E008950A
:104DA00080E0903509F481E00895AF92BF92CF92F0
:104DB000DF92EF92FF920F931F93CF93DF93B82E62
:104DC000A62EEA01F22E68018E7F5BDF182F882362
:104DD00039F022C08881B9DFFA94882319F021962E
:104DE000FF20C1F78B2D81606A2D4BDF182F8823A0
:104DF00071F012C0EA9460E009F461E0C601B7DF27
:104E0000882311F415E005C00894C11CD11CEE20C4
:104E100089F784E98093BC00812FDF91CF911F91A6
:104E20000F91FF90EF90DF90CF90BF90AF900895DB
:104E3000DF92EF92FF920F931F93CF93DF93EA01DC
:104E4000F22EDE2C8E7F1DDFE82E882339F01CC069
:104E500088817BDFFA94882381F02196FF20C1F7B7
:104E60000EC0F801808171DFDA94882319F495E08F
:104E7000E92E07C00F5F1F4F02C085E0E82EDD203E
:104E800081F784E98093BC008E2DDF91CF911F9133
:104E90000F91FF90EF90DF900895629FD001739F74
:104EA000F001829FE00DF11D649FE00DF11D929FC6
:104EB000F00D839FF00D749FF00D659FF00D992705
:104EC000729FB00DE11DF91F639FB00DE11DF91F29
:104ED000BD01CF0111240895991B79E004C0991FE9
:104EE000961708F0961B881F7A95C9F78095089544
:104EF000AA1BBB1B51E107C0AA1FBB1FA617B70700
:104F000010F0A61BB70B881F991F5A95A9F780951B
:104F10009095BC01CD010895A1E21A2EAA1BBB1BDE
:104F2000FD010DC0AA1FBB1FEE1FFF1FA217B30775
:104F3000E407F50720F0A21BB30BE40BF50B661F8B
:104F4000771F881F991F1A9469F76095709580954F
:104F500090959B01AC01BD01CF010895FB01DC01DF
:104F600004C08D910190801921F441505040C8F740
:104F7000881B990B0895FB01DC0102C001900D9282
:104F800041505040D8F70895DC0101C06D93415065
:104F90005040E0F70895AEE0B0E0E0EDF7E2B2C2D5
:104FA0000D891E8986E08C831A8309838FEF9FE722
:104FB0009E838D839E01275E3F4FCE0101966F89B0
:104FC000788DA90109D02F813885020F131FF801B0
:104FD00010822E96E4E0B2C2ABE0B0E0E1EFF7E27F
:104FE00083C23C012B015A01FC0117821682838186
:104FF00081FD03C06FEF7FEFB9C19AE0892E1E01DA
:105000000894211C311CF3012381F20123FD8591B9
:1050100023FF81912F01882309F4A5C1853239F43A
:1050200023FD859123FF81912F01853221F490E0AA
:10503000B301D0D1E8CF982FFF24EE249924FFE1CB
:10504000FF15D0F09B3269F09C3228F4903259F071
:10505000933291F40EC09D3249F0903369F441E0EF
:1050600024C052E0F52A84E0F82A28C098E0F92A02
:1050700025C0E0E1FE2A22C0F7FC29C0892F805319
:105080008A3070F4F6FE05C0989C902C1124980E7E
:1050900015C0E89CE02C1124E80EF0E2FF2A0EC0B7
:1050A0009E3229F4F6FC5FC140E4F42A07C09C3626
:1050B00019F450E8F52A02C0983649F4F20123FDAC
:1050C000959123FF91912F01992309F0B8CF892F52
:1050D0008554833018F08052833038F444E050E037
:1050E000A40EB51E5FE359830FC0933631F093379A
:1050F00079F0933509F052C01FC0F5018081898392
:1051000042E050E0A40EB51E610101E010E011C0C4
:10511000F501C080D180F6FC03C06FEF7FEF02C0C5
:10512000692D70E042E050E0A40EB51EC60147D1E3
:105130008C015FE7F52213C0F501C080D180F6FC39
:1051400003C06FEF7FEF02C0692D70E042E050E0D6
:10515000A40EB51EC60128D18C0150E8F52AF3FE35
:1051600006C018C080E290E0B30134D1EA948E2DDD
:1051700090E008171907B0F30DC0F601F7FC859110
:10518000F7FE81916F0190E0B30124D1E110EA9420
:10519000015010400115110581F7E2C0943611F05D
:1051A000993661F5F7FE08C0F50120813181428111
:1051B000538184E090E00AC0F501808191819C01D7
:1051C000442737FD4095542F82E090E0A80EB91E89
:1051D0009FE6F92257FF09C05095409530952195DB
:1051E0003F4F4F4F5F4FE0E8FE2ACA01B901A101CE
:1051F0002AE030E01BD1D82ED2183FC0953729F4D1
:105200001F2D1F7E2AE030E01DC01F2D197F9F3605
:1052100061F0903720F4983509F0A5C00FC09037A1
:1052200039F0983709F09FC004C028E030E00AC088
:10523000106114FD146020E130E004C014FD16601C
:1052400020E132E017FF08C0F501608171818281A1
:10525000938144E050E008C0F50180819181BC0158
:1052600080E090E042E050E0A40EB51EA101DED047
:10527000D82ED2188FE7F82EF122F6FE0BC05EEF83
:10528000F522D91438F4F4FE07C0F2FC05C08FEE05
:10529000F82202C01D2D01C0192DF4FE0DC0FE0123
:1052A000ED0DF11D8081803319F499EEF92208C0CB
:1052B0001F5FF2FE05C003C08F2D867809F01F5FC7
:1052C0000F2DF3FC13C0F0FE0EC01E1510F09D2C28
:1052D0000AC09D2C9E0C911A1E2D05C080E290E004
:1052E000B30178D01F5F1E15C8F304C01E1510F45B
:1052F000E11A01C0EE2404FF0EC080E390E0B30188
:1053000069D002FF1BC001FD03C088E790E00EC01A
:1053100088E590E00BC0802F867881F001FF02C005
:105320008BE201C080E2F7FC8DE290E0B30152D045
:1053300005C080E390E0B3014DD09A94D914C8F32E
:10534000DA94F101ED0DF11D808190E0B30142D0BE
:10535000DD20B1F705C080E290E0B3013BD0EA94D4
:10536000EE20C9F750CEF30166817781CB012B96F1
:10537000E2E1D6C0F999FECF92BD81BDF89A992796
:1053800080B50895262FF999FECF92BD81BDF89A78
:10539000019700B4021639F01FBA20BD0FB6F89479
:1053A000FA9AF99A0FBE0895FC0105906150704079
:1053B0000110D8F7809590958E0F9F1F0895FC01DE
:1053C0006150704001900110D8F7809590958E0F34
:1053D0009F1F08950F931F93CF93DF938C01EB01D1
:1053E0008B8181FF1BC082FF0DC02E813F818C818C
:1053F0009D812817390764F4E881F9810193F983C5
:10540000E88306C0E885F985802F0995892B31F45A
:105410008E819F8101969F838E8302C00FEF1FEFC5
:10542000C801DF91CF911F910F910895FA01AA272A
:10543000283051F1203181F1E8946F936E7F6E5FD7
:105440007F4F8F4F9F4FAF4FB1E03ED0B4E03CD085
:10545000670F781F891F9A1FA11D680F791F8A1F68
:10546000911DA11D6A0F711D811D911DA11D20D0CF
:1054700009F468943F912AE0269F11243019305D89
:105480003193DEF6CF010895462F4770405D41937A
:10549000B3E00FD0C9F7F6CF462F4F70405D4A33C7
:1054A00018F0495D31FD4052419302D0A9F7EACF8F
:1054B000B4E0A6959795879577956795BA95C9F7BE
:1054C00000976105710508959B01AC010A2E0694B1
:1054D0005795479537952795BA95C9F7620F731F6A
:1054E000841F951FA01D08952F923F924F925F92A7
:1054F0006F927F928F929F92AF92BF92CF92DF92E4
:10550000EF92FF920F931F93CF93DF93CDB7DEB748
:10551000CA1BDB0B0FB6F894DEBF0FBECDBF0994DC
:105520002A88398848885F846E847D848C849B8433
:10553000AA84B984C884DF80EE80FD800C811B8141
:10554000AA81B981CE0FD11D0FB6F894DEBF0FBE70
:0A555000CDBFED010895F894FFCFE0
:10555A002530326425303264253032642E63737606
:10556A0000253032642F253032642F323025303214
:10557A00642C20253032643A253032643A253032A0
:10558A00642C20256420446567726565730D0A00E2
:10559A000003400000044000000100000000000079
:1055AA0000000000000000000000000000000000F1
:1055BA0000000000000000000000000000000000E1
:1055CA000000000000000001011000001D06070095
:1055DA0000000000700000000000000A0000000047
:1055EA00000000000000008000021F0000004C556F
:1055FA0046410000000044617461666C6173682072
:10560A004469736B0000302E3030222A2B2C3A3B2F
:0A561A003C3D3E3F5B5D7C7F0000DD
:00000001FF
